{
  "sourcePath": "/project1/Tracer/contracts/AuditTracer.sol",
  "source": "pragma solidity ^0.4.18;\r\n\r\n//author:rujia\r\n//website:www.rujia.uk\r\n//version:1.0\r\n\r\ncontract AuditTracer {\r\n    \r\n    uint256 public gx;\r\n    uint256 public gy;\r\n    uint256 public p;\r\n    uint256 public a;\r\n    uint256 public b;\r\n \r\n    // The address of the account that created this ballot.\r\n    address public tracerCreator;\r\n    mapping (address => uint256) private CredentialTraceTimes;\r\n    mapping (address => uint256) private CredentialTraceResults;\r\n    \r\n    mapping (address => uint256) private IdentityTraceTimes;\r\n    mapping (address => uint256) private IdentityTraceResults;\r\n\t\r\n    uint256 public index = 0;\r\n    uint256 public xt;\r\n    \r\n    uint256 public yt_x;\r\n    uint256 public yt_y;\r\n    \r\n    uint256 public c_x;\r\n    uint256 public c_y;\r\n    \r\n    uint256 public i_x;\r\n    uint256 public i_y;\r\n    \r\n    constructor() public {\r\n        tracerCreator = msg.sender;\r\n    }\r\n \r\n    event trace_log(\r\n        string information,\r\n        address indexed sender,\r\n        uint256 timestamp,\r\n        uint256 calltimes,\r\n        uint256 obj\r\n    );\r\n    \r\n    function credential_tracing_log(uint256 obj) internal {\r\n         emit trace_log(\"credential_tracing_log\", msg.sender, now, CredentialTraceTimes[msg.sender], obj);\r\n    }\r\n    \r\n    function identity_tracing_log(uint256 obj) internal {\r\n         emit trace_log(\"credential_tracing_log\", msg.sender, now, IdentityTraceTimes[msg.sender], obj);\r\n    }\r\n\t\r\n\tfunction register_parameter(uint256 _a, uint256 _b, uint256 _p, uint256 _gx, uint256 _gy) public{ \r\n\t\ta = _a;\r\n\t\tb = _b;\r\n\t\tp = _p;\r\n\t\tgx = _gx;\r\n\t\tgy = _gy;\r\n        xt = rand_less_than(_p);\r\n    }\r\n    \r\n    function get_private_key() public view returns(uint256){  \r\n\t\treturn xt;\r\n\t}\r\n    \r\n    function calculate_public_key() public{  \r\n        (yt_x, yt_y) = ecmul(gx, gy, xt);\r\n\t}\r\n\t\r\n\tfunction get_public_key() public view returns(uint256 , uint256 ){  \r\n\t\treturn (yt_x, yt_y);\r\n\t}\r\n\t\r\n\tfunction credential_tracing() public returns(uint256,uint256){\r\n\t        CredentialTraceTimes[msg.sender] += 1;\r\n\t    return (c_x,c_y);\r\n\t}\r\n\t\r\n\tfunction identity_tracing() public returns(uint256,uint256){\r\n\t        CredentialTraceTimes[msg.sender] += 1;\r\n\t     return (i_x,i_y);\r\n\t}\r\n\r\n\t// trace the credential\r\n    function credential_calculating(uint256 xiupsilon_x, uint256 xiupsilon_y) public{\r\n\t    if (CredentialTraceTimes[msg.sender] == 0){\r\n            (c_x,c_y) = ecmul(xiupsilon_x, xiupsilon_y, xt);\r\n        }\r\n        credential_tracing_log(xiupsilon_x);\r\n    }\r\n    \r\n    // trace the identity\r\n    function identity_calculating(uint256 zeta1_x, uint256 zeta1_y) public{\r\n        if (IdentityTraceTimes[msg.sender] == 0){\r\n            uint256 nxt = quick_power(xt, p - 2, p);\r\n            (i_x,i_y) = ecmul(zeta1_x, zeta1_y, nxt);\r\n        }\r\n        identity_tracing_log(zeta1_x);\r\n    }\r\n    \r\n    function rand_less_than(uint256 upper_bound) private returns(uint256){\r\n        index = index + 1;\r\n        uint256 r = PRNG(index);\r\n        if(r < upper_bound){\r\n            return r;\r\n        }\r\n        rand_less_than(upper_bound);\r\n    }\r\n    \r\n    function PRNG(uint256 t) private view returns(uint256) {\r\n        return uint256(uint256(keccak256(abi.encodePacked(msg.sender,now,t)))) ;\r\n    }\r\n\r\n    function quick_power(uint256 al, uint256 bl, uint256 m) private pure returns(uint256){\r\n      uint256 result = 1;\r\n      for(uint256 count = 1; count <= bl; count*=2){\r\n          if(bl & count != 0){\r\n              result = mulmod(result, al, m);\r\n          }\r\n          al = mulmod(al, al, m);\r\n      }\r\n      return result;\r\n    }\r\n\r\n    function _jAdd(\r\n        uint256 x1, uint256 z1,\r\n        uint256 x2, uint256 z2)\r\n        internal \r\n        view\r\n        returns(uint256 x3, uint256 z3)\r\n    {\r\n        (x3, z3) = (\r\n            addmod(\r\n                mulmod(z2, x1, p),\r\n                mulmod(x2, z1, p),\r\n                p\r\n            ),\r\n            mulmod(z1, z2, p)\r\n        );\r\n    }\r\n\r\n    function _jSub(\r\n        uint256 x1, uint256 z1,\r\n        uint256 x2, uint256 z2)\r\n        internal \r\n        view\r\n        returns(uint256 x3, uint256 z3)\r\n    {\r\n        (x3, z3) = (\r\n            addmod(\r\n                mulmod(z2, x1, p),\r\n                mulmod(p - x2, z1, p),\r\n                p\r\n            ),\r\n            mulmod(z1, z2, p)\r\n        );\r\n    }\r\n\r\n    function _jMul(\r\n        uint256 x1, uint256 z1,\r\n        uint256 x2, uint256 z2)\r\n        public \r\n        view\r\n        returns(uint256 x3, uint256 z3)\r\n    {\r\n        (x3, z3) = (\r\n            mulmod(x1, x2, p),\r\n            mulmod(z1, z2, p)\r\n        );\r\n    }\r\n\r\n    function _jDiv(\r\n        uint256 x1, uint256 z1,\r\n        uint256 x2, uint256 z2) \r\n        internal \r\n        view\r\n        returns(uint256 x3, uint256 z3)\r\n    {\r\n        (x3, z3) = (\r\n            mulmod(x1, z2, p),\r\n            mulmod(z1, x2, p)\r\n        );\r\n    }\r\n\r\n    function _inverse(uint256 val) internal view\r\n        returns(uint256 invVal)\r\n    {\r\n        uint256 t = 0;\r\n        uint256 newT = 1;\r\n        uint256 r = p;\r\n        uint256 newR = val;\r\n        uint256 qi;\r\n        while (newR != 0) {\r\n            qi = r / newR;\r\n\r\n            (t, newT) = (newT, addmod(t, (p - mulmod(qi, newT, p)), p));\r\n            (r, newR) = (newR, r - qi * newR );\r\n        }\r\n\r\n        return t;\r\n    }\r\n\r\n    function _ecAdd(\r\n        uint256 x1, uint256 y1, uint256 z1,\r\n        uint256 x2, uint256 y2, uint256 z2) \r\n        internal \r\n        view\r\n        returns(uint256 x3, uint256 y3, uint256 z3)\r\n    {\r\n        uint256 lx;\r\n        uint256 lz;\r\n        uint256 da;\r\n        uint256 db;\r\n\r\n        if (x1 == 0 && y1 == 0) {\r\n            return (x2, y2, z2);\r\n        }\r\n\r\n        if (x2 == 0 && y2 == 0) {\r\n            return (x1, y1, z1);\r\n        }\r\n\r\n        if (x1 == x2 && y1 == y2) {\r\n            (lx, lz) = _jMul(x1, z1, x1, z1);\r\n            (lx, lz) = _jMul(lx, lz, 3, 1);\r\n            (lx, lz) = _jAdd(lx, lz, a, 1);\r\n\r\n            (da,db) = _jMul(y1, z1, 2, 1);\r\n        } else {\r\n            (lx, lz) = _jSub(y2, z2, y1, z1);\r\n            (da, db) = _jSub(x2, z2, x1, z1);\r\n        }\r\n\r\n        (lx, lz) = _jDiv(lx, lz, da, db);\r\n\r\n        (x3, da) = _jMul(lx, lz, lx, lz);\r\n        (x3, da) = _jSub(x3, da, x1, z1);\r\n        (x3, da) = _jSub(x3, da, x2, z2);\r\n\r\n        (y3, db) = _jSub(x1, z1, x3, da);\r\n        (y3, db) = _jMul(y3, db, lx, lz);\r\n        (y3, db) = _jSub(y3, db, y1, z1);\r\n\r\n        if (da != db) {\r\n            x3 = mulmod(x3, db, p);\r\n            y3 = mulmod(y3, da, p);\r\n            z3 = mulmod(da, db, p);\r\n        } else {\r\n            z3 = da;\r\n        }\r\n    }\r\n\r\n    function _ecDouble(uint256 x1, uint256 y1, uint256 z1) internal view\r\n        returns(uint256 x3, uint256 y3, uint256 z3)\r\n    {\r\n        (x3, y3, z3) = _ecAdd(x1, y1, z1, x1, y1, z1);\r\n    }\r\n\r\n    function _ecMul(uint256 d, uint256 x1, uint256 y1, uint256 z1) internal view\r\n        returns(uint256 x3, uint256 y3, uint256 z3)\r\n    {\r\n        uint256 remaining = d;\r\n        uint256 px = x1;\r\n        uint256 py = y1;\r\n        uint256 pz = z1;\r\n        uint256 acx = 0;\r\n        uint256 acy = 0;\r\n        uint256 acz = 1;\r\n\r\n        if (d == 0) {\r\n            return (0, 0, 1);\r\n        }\r\n\r\n        while (remaining != 0) {\r\n            if ((remaining & 1) != 0) {\r\n                (acx,acy,acz) = _ecAdd(acx, acy, acz, px, py, pz);\r\n            }\r\n            remaining = remaining / 2;\r\n            (px, py, pz) = _ecDouble(px, py, pz);\r\n        }\r\n\r\n        (x3, y3, z3) = (acx, acy, acz);\r\n    }\r\n\r\n    function ecadd(\r\n        uint256 x1, uint256 y1,\r\n        uint256 x2, uint256 y2)\r\n        internal\r\n        view\r\n        returns(uint256 x3, uint256 y3)\r\n    {\r\n        uint256 z;\r\n        (x3, y3, z) = _ecAdd(x1, y1, 1, x2, y2, 1);\r\n        z = _inverse(z);\r\n        x3 = mulmod(x3, z, p);\r\n        y3 = mulmod(y3, z, p);\r\n    }\r\n\r\n    function ecmul(uint256 x1, uint256 y1, uint256 scalar) public view\r\n        returns(uint256 x2, uint256 y2)\r\n    {\r\n        uint256 z;\r\n        (x2, y2, z) = _ecMul(scalar, x1, y1, 1);\r\n        z = _inverse(z);\r\n        x2 = mulmod(x2, z, p);\r\n        y2 = mulmod(y2, z, p);\r\n    }\r\n\r\n}",
  "abi": [
    {
      "constant": true,
      "inputs": [],
      "name": "gx",
      "outputs": [
        {
          "name": "",
          "type": "uint256"
        }
      ],
      "payable": false,
      "stateMutability": "view",
      "type": "function"
    },
    {
      "constant": true,
      "inputs": [],
      "name": "xt",
      "outputs": [
        {
          "name": "",
          "type": "uint256"
        }
      ],
      "payable": false,
      "stateMutability": "view",
      "type": "function"
    },
    {
      "constant": true,
      "inputs": [],
      "name": "a",
      "outputs": [
        {
          "name": "",
          "type": "uint256"
        }
      ],
      "payable": false,
      "stateMutability": "view",
      "type": "function"
    },
    {
      "constant": true,
      "inputs": [],
      "name": "index",
      "outputs": [
        {
          "name": "",
          "type": "uint256"
        }
      ],
      "payable": false,
      "stateMutability": "view",
      "type": "function"
    },
    {
      "constant": true,
      "inputs": [],
      "name": "gy",
      "outputs": [
        {
          "name": "",
          "type": "uint256"
        }
      ],
      "payable": false,
      "stateMutability": "view",
      "type": "function"
    },
    {
      "constant": true,
      "inputs": [],
      "name": "yt_x",
      "outputs": [
        {
          "name": "",
          "type": "uint256"
        }
      ],
      "payable": false,
      "stateMutability": "view",
      "type": "function"
    },
    {
      "constant": true,
      "inputs": [],
      "name": "tracerCreator",
      "outputs": [
        {
          "name": "",
          "type": "address"
        }
      ],
      "payable": false,
      "stateMutability": "view",
      "type": "function"
    },
    {
      "constant": true,
      "inputs": [],
      "name": "i_y",
      "outputs": [
        {
          "name": "",
          "type": "uint256"
        }
      ],
      "payable": false,
      "stateMutability": "view",
      "type": "function"
    },
    {
      "constant": true,
      "inputs": [],
      "name": "b",
      "outputs": [
        {
          "name": "",
          "type": "uint256"
        }
      ],
      "payable": false,
      "stateMutability": "view",
      "type": "function"
    },
    {
      "constant": true,
      "inputs": [],
      "name": "c_y",
      "outputs": [
        {
          "name": "",
          "type": "uint256"
        }
      ],
      "payable": false,
      "stateMutability": "view",
      "type": "function"
    },
    {
      "constant": true,
      "inputs": [],
      "name": "c_x",
      "outputs": [
        {
          "name": "",
          "type": "uint256"
        }
      ],
      "payable": false,
      "stateMutability": "view",
      "type": "function"
    },
    {
      "constant": true,
      "inputs": [],
      "name": "i_x",
      "outputs": [
        {
          "name": "",
          "type": "uint256"
        }
      ],
      "payable": false,
      "stateMutability": "view",
      "type": "function"
    },
    {
      "constant": true,
      "inputs": [],
      "name": "p",
      "outputs": [
        {
          "name": "",
          "type": "uint256"
        }
      ],
      "payable": false,
      "stateMutability": "view",
      "type": "function"
    },
    {
      "constant": true,
      "inputs": [],
      "name": "yt_y",
      "outputs": [
        {
          "name": "",
          "type": "uint256"
        }
      ],
      "payable": false,
      "stateMutability": "view",
      "type": "function"
    },
    {
      "inputs": [],
      "payable": false,
      "stateMutability": "nonpayable",
      "type": "constructor"
    },
    {
      "anonymous": false,
      "inputs": [
        {
          "indexed": false,
          "name": "information",
          "type": "string"
        },
        {
          "indexed": true,
          "name": "sender",
          "type": "address"
        },
        {
          "indexed": false,
          "name": "timestamp",
          "type": "uint256"
        },
        {
          "indexed": false,
          "name": "calltimes",
          "type": "uint256"
        },
        {
          "indexed": false,
          "name": "obj",
          "type": "uint256"
        }
      ],
      "name": "trace_log",
      "type": "event"
    },
    {
      "constant": false,
      "inputs": [
        {
          "name": "_a",
          "type": "uint256"
        },
        {
          "name": "_b",
          "type": "uint256"
        },
        {
          "name": "_p",
          "type": "uint256"
        },
        {
          "name": "_gx",
          "type": "uint256"
        },
        {
          "name": "_gy",
          "type": "uint256"
        }
      ],
      "name": "register_parameter",
      "outputs": [],
      "payable": false,
      "stateMutability": "nonpayable",
      "type": "function"
    },
    {
      "constant": true,
      "inputs": [],
      "name": "get_private_key",
      "outputs": [
        {
          "name": "",
          "type": "uint256"
        }
      ],
      "payable": false,
      "stateMutability": "view",
      "type": "function"
    },
    {
      "constant": false,
      "inputs": [],
      "name": "calculate_public_key",
      "outputs": [],
      "payable": false,
      "stateMutability": "nonpayable",
      "type": "function"
    },
    {
      "constant": true,
      "inputs": [],
      "name": "get_public_key",
      "outputs": [
        {
          "name": "",
          "type": "uint256"
        },
        {
          "name": "",
          "type": "uint256"
        }
      ],
      "payable": false,
      "stateMutability": "view",
      "type": "function"
    },
    {
      "constant": false,
      "inputs": [],
      "name": "credential_tracing",
      "outputs": [
        {
          "name": "",
          "type": "uint256"
        },
        {
          "name": "",
          "type": "uint256"
        }
      ],
      "payable": false,
      "stateMutability": "nonpayable",
      "type": "function"
    },
    {
      "constant": false,
      "inputs": [],
      "name": "identity_tracing",
      "outputs": [
        {
          "name": "",
          "type": "uint256"
        },
        {
          "name": "",
          "type": "uint256"
        }
      ],
      "payable": false,
      "stateMutability": "nonpayable",
      "type": "function"
    },
    {
      "constant": false,
      "inputs": [
        {
          "name": "xiupsilon_x",
          "type": "uint256"
        },
        {
          "name": "xiupsilon_y",
          "type": "uint256"
        }
      ],
      "name": "credential_calculating",
      "outputs": [],
      "payable": false,
      "stateMutability": "nonpayable",
      "type": "function"
    },
    {
      "constant": false,
      "inputs": [
        {
          "name": "zeta1_x",
          "type": "uint256"
        },
        {
          "name": "zeta1_y",
          "type": "uint256"
        }
      ],
      "name": "identity_calculating",
      "outputs": [],
      "payable": false,
      "stateMutability": "nonpayable",
      "type": "function"
    },
    {
      "constant": true,
      "inputs": [
        {
          "name": "x1",
          "type": "uint256"
        },
        {
          "name": "z1",
          "type": "uint256"
        },
        {
          "name": "x2",
          "type": "uint256"
        },
        {
          "name": "z2",
          "type": "uint256"
        }
      ],
      "name": "_jMul",
      "outputs": [
        {
          "name": "x3",
          "type": "uint256"
        },
        {
          "name": "z3",
          "type": "uint256"
        }
      ],
      "payable": false,
      "stateMutability": "view",
      "type": "function"
    },
    {
      "constant": true,
      "inputs": [
        {
          "name": "x1",
          "type": "uint256"
        },
        {
          "name": "y1",
          "type": "uint256"
        },
        {
          "name": "scalar",
          "type": "uint256"
        }
      ],
      "name": "ecmul",
      "outputs": [
        {
          "name": "x2",
          "type": "uint256"
        },
        {
          "name": "y2",
          "type": "uint256"
        }
      ],
      "payable": false,
      "stateMutability": "view",
      "type": "function"
    }
  ],
  "bytecode": "0x60806040526000600a5534801561001557600080fd5b5033600560006101000a81548173ffffffffffffffffffffffffffffffffffffffff021916908373ffffffffffffffffffffffffffffffffffffffff1602179055506110b2806100666000396000f30060806040526004361061013e576000357c0100000000000000000000000000000000000000000000000000000000900463ffffffff16806306c91ce314610143578063073941ee1461016e57806308c10846146101c35780630dbe671f146101ee5780632986c0e5146102195780632d58c9a214610244578063338d0dd61461026f57806336996a95146102a65780634b06d3cb146102d15780634bc34971146103285780634df7e3d0146103535780634e12bb5c1461037e5780635b764811146103a95780635e80c8541461040f5780635ee27ac21461043a578063600f00511461046c5780636f90a061146104835780637892c9d1146104ae5780638081a1e7146104d9578063919f7a25146105355780639ae8886a146105675780639c8316cf14610592578063d8bfff3a146105c9578063fdab4989146105f4575b600080fd5b34801561014f57600080fd5b50610158610626565b6040518082815260200191505060405180910390f35b34801561017a57600080fd5b506101c1600480360381019080803590602001909291908035906020019092919080359060200190929190803590602001909291908035906020019092919050505061062c565b005b3480156101cf57600080fd5b506101d8610665565b6040518082815260200191505060405180910390f35b3480156101fa57600080fd5b5061020361066b565b6040518082815260200191505060405180910390f35b34801561022557600080fd5b5061022e610671565b6040518082815260200191505060405180910390f35b34801561025057600080fd5b50610259610677565b6040518082815260200191505060405180910390f35b34801561027b57600080fd5b506102a4600480360381019080803590602001909291908035906020019092919050505061067d565b005b3480156102b257600080fd5b506102bb610709565b6040518082815260200191505060405180910390f35b3480156102dd57600080fd5b506102e661070f565b604051808273ffffffffffffffffffffffffffffffffffffffff1673ffffffffffffffffffffffffffffffffffffffff16815260200191505060405180910390f35b34801561033457600080fd5b5061033d610735565b6040518082815260200191505060405180910390f35b34801561035f57600080fd5b5061036861073b565b6040518082815260200191505060405180910390f35b34801561038a57600080fd5b50610393610741565b6040518082815260200191505060405180910390f35b3480156103b557600080fd5b506103f26004803603810190808035906020019092919080359060200190929190803590602001909291908035906020019092919050505061074b565b604051808381526020018281526020019250505060405180910390f35b34801561041b57600080fd5b5061042461077d565b6040518082815260200191505060405180910390f35b34801561044657600080fd5b5061044f610783565b604051808381526020018281526020019250505060405180910390f35b34801561047857600080fd5b50610481610794565b005b34801561048f57600080fd5b506104986107bb565b6040518082815260200191505060405180910390f35b3480156104ba57600080fd5b506104c36107c1565b6040518082815260200191505060405180910390f35b3480156104e557600080fd5b506105186004803603810190808035906020019092919080359060200190929190803590602001909291905050506107c7565b604051808381526020018281526020019250505060405180910390f35b34801561054157600080fd5b5061054a61081b565b604051808381526020018281526020019250505060405180910390f35b34801561057357600080fd5b5061057c61087a565b6040518082815260200191505060405180910390f35b34801561059e57600080fd5b506105c76004803603810190808035906020019092919080359060200190929190505050610880565b005b3480156105d557600080fd5b506105de6108f7565b6040518082815260200191505060405180910390f35b34801561060057600080fd5b506106096108fd565b604051808381526020018281526020019250505060405180910390f35b60005481565b84600381905550836004819055508260028190555081600081905550806001819055506106588361095c565b600b819055505050505050565b600b5481565b60035481565b600a5481565b60015481565b600080600860003373ffffffffffffffffffffffffffffffffffffffff1673ffffffffffffffffffffffffffffffffffffffff1681526020019081526020016000205414156106fb576106d9600b546002805403600254610999565b90506106e68383836107c7565b60106000601160008491905055839190505550505b610704836109f2565b505050565b600c5481565b600560009054906101000a900473ffffffffffffffffffffffffffffffffffffffff1681565b60115481565b60045481565b6000600b54905090565b60008060025480151561075a57fe5b84870960025480151561076957fe5b848709809250819350505094509492505050565b600f5481565b600080600c54600d54915091509091565b6107a5600054600154600b546107c7565b600c6000600d6000849190505583919050555050565b600e5481565b60105481565b60008060006107d98487876001610acb565b8093508194508295505050506107ee81610b93565b90506002548015156107fc57fe5b818409925060025480151561080d57fe5b818309915050935093915050565b6000806001600660003373ffffffffffffffffffffffffffffffffffffffff1673ffffffffffffffffffffffffffffffffffffffff16815260200190815260200160002060008282540192505081905550601054601154915091509091565b60025481565b6000600660003373ffffffffffffffffffffffffffffffffffffffff1673ffffffffffffffffffffffffffffffffffffffff1681526020019081526020016000205414156108ea576108d58282600b546107c7565b600e6000600f60008491905055839190505550505b6108f382610c0f565b5050565b600d5481565b6000806001600660003373ffffffffffffffffffffffffffffffffffffffff1673ffffffffffffffffffffffffffffffffffffffff16815260200190815260200160002060008282540192505081905550600e54600f54915091509091565b6000806001600a5401600a81905550610976600a54610ce8565b90508281101561098857809150610993565b6109918361095c565b505b50919050565b600080600060019150600190505b84811115156109e65760008186161415156109cc57838015156109c657fe5b86830991505b838015156109d657fe5b86870995506002810290506109a7565b81925050509392505050565b3373ffffffffffffffffffffffffffffffffffffffff167fecaf2ce53237aac054ad6ae1d2bd5f41f791b589000795e92aeccc771d693c9442600860003373ffffffffffffffffffffffffffffffffffffffff1673ffffffffffffffffffffffffffffffffffffffff16815260200190815260200160002054846040518080602001858152602001848152602001838152602001828103825260168152602001807f63726564656e7469616c5f74726163696e675f6c6f670000000000000000000081525060200194505050505060405180910390a250565b6000806000806000806000806000808d96508c95508b94508a935060009250600091506001905060008e1415610b14576000806001829250819150809050995099509950610b82565b5b600087141515610b7257600060018816141515610b4757610b3a838383898989610dc2565b8093508194508295505050505b600287811515610b5357fe5b049650610b61868686610f8c565b809650819750829850505050610b15565b828282809a50819b50829c505050505b505050505050509450945094915050565b600080600080600080600094506001935060025492508691505b600082141515610c02578183811515610bc257fe5b04905083600254801515610bd257fe5b600254801515610bde57fe5b86840960025403870880955081965050508182820284038093508194505050610bad565b8495505050505050919050565b3373ffffffffffffffffffffffffffffffffffffffff167fecaf2ce53237aac054ad6ae1d2bd5f41f791b589000795e92aeccc771d693c9442600660003373ffffffffffffffffffffffffffffffffffffffff1673ffffffffffffffffffffffffffffffffffffffff16815260200190815260200160002054846040518080602001858152602001848152602001838152602001828103825260168152602001807f63726564656e7469616c5f74726163696e675f6c6f670000000000000000000081525060200194505050505060405180910390a250565b6000334283604051602001808473ffffffffffffffffffffffffffffffffffffffff1673ffffffffffffffffffffffffffffffffffffffff166c0100000000000000000000000002815260140183815260200182815260200193505050506040516020818303038152906040526040518082805190602001908083835b602083101515610d8a5780518252602082019150602081019050602083039250610d65565b6001836020036101000a0380198251168184511680821785525050505050509050019150506040518091039020600190049050919050565b6000806000806000806000808d148015610ddc575060008c145b15610def57898989965096509650610f7c565b60008a148015610dff5750600089145b15610e12578c8c8c965096509650610f7c565b898d148015610e205750888c145b15610e8157610e318d8c8f8e61074b565b8094508195505050610e4784846003600161074b565b8094508195505050610e5e84846003546001610fb4565b8094508195505050610e748c8c6002600161074b565b8092508193505050610eaa565b610e8d89898e8e611002565b8094508195505050610ea18a898f8e611002565b80925081935050505b610eb684848484611054565b8094508195505050610eca8484868661074b565b8093508198505050610ede87838f8e611002565b8093508198505050610ef287838c8b611002565b8093508198505050610f068d8c8985611002565b8092508197505050610f1a8682868661074b565b8092508197505050610f2e86828e8e611002565b80925081975050508082141515610f7757600254801515610f4b57fe5b8188099650600254801515610f5c57fe5b8287099550600254801515610f6d57fe5b8183099450610f7b565b8194505b5b5050505096509650969350505050565b6000806000610f9f868686898989610dc2565b80935081945082955050505093509350939050565b600080600254801515610fc357fe5b600254801515610fcf57fe5b868609600254801515610fde57fe5b88860908600254801515610fee57fe5b848709809250819350505094509492505050565b60008060025480151561101157fe5b60025480151561101d57fe5b8686600254030960025480151561103057fe5b8886090860025480151561104057fe5b848709809250819350505094509492505050565b60008060025480151561106357fe5b83870960025480151561107257fe5b8587098092508193505050945094925050505600a165627a7a723058200b3669a321ee020bd8382ca7929785192bbce061f80a74ae15977248d18430230029",
  "compiler": {
    "name": "solc",
    "version": "0.4.25+commit.59dbf8f1.Emscripten.clang"
  },
  "contractName": "AuditTracer"
}