{
  "sourcePath": "/project/contracts/AuditTracer.sol",
  "source": "pragma solidity ^0.4.18;\r\n\r\n//author:rujia\r\n//website:www.rujia.uk\r\n//version:1.0\r\n//ref: https://github.com/tdrerup/elliptic-curve-solidity/blob/master/contracts/curves/EllipticCurve.sol\r\n\r\ncontract AuditTracer {\r\n    \r\n    uint256 public gx;\r\n    uint256 public gy;\r\n    uint256 public p;\r\n\tuint256 public n;\r\n    uint256 public a;\r\n    uint256 public b;\r\n \r\n    // The address of the account that created this ballot.\r\n    address public tracerCreator;\r\n    mapping (address => uint256) private CredentialTraceTimes;\r\n    mapping (address => uint256) private CredentialTraceResults;\r\n    \r\n    mapping (address => uint256) private IdentityTraceTimes;\r\n    mapping (address => uint256) private IdentityTraceResults;\r\n\t\r\n    uint256 public seed = 0;\r\n    uint256 private xt;\r\n    \r\n    uint256 public yt_x;\r\n    uint256 public yt_y;\r\n    \r\n    uint256 private c_x;\r\n    uint256 private c_y;\r\n    \r\n    uint256 private i_x;\r\n    uint256 private i_y;\r\n    \r\n    constructor() public {\r\n        tracerCreator = msg.sender;\r\n    }\r\n \r\n    event trace_log(\r\n        string information,\r\n        address indexed sender,\r\n        uint256 timestamp,\r\n        uint256 calltimes,\r\n        uint256 obj\r\n    );\r\n    \r\n    function credential_tracing_log(uint256 obj) internal {\r\n         emit trace_log(\"credential_tracing_log\", msg.sender, now, CredentialTraceTimes[msg.sender], obj);\r\n    }\r\n    \r\n    function identity_tracing_log(uint256 obj) internal {\r\n         emit trace_log(\"credential_tracing_log\", msg.sender, now, IdentityTraceTimes[msg.sender], obj);\r\n    }\r\n\t\r\n\tfunction register_parameter(uint256 _a, uint256 _b, uint256 _p, uint256 _n, uint256 _gx, uint256 _gy) public{ \r\n\t\ta = _a;\r\n\t\tb = _b;\r\n\t\tp = _p;\r\n\t\tn = _n;\r\n\t\tgx = _gx;\r\n\t\tgy = _gy;\r\n        xt = rand_less_than(_n);\r\n    }\r\n    \r\n    function get_private_key() public view returns(uint256){  \r\n\t\treturn xt;\r\n\t}\r\n    \r\n    function calculate_public_key() public{  \r\n        (yt_x, yt_y) = multiplyScalar(gx, gy, xt);\r\n\t}\r\n\t\r\n\tfunction get_public_key() public view returns(uint256 , uint256 ){  \r\n\t\treturn (yt_x, yt_y);\r\n\t}\r\n\t\r\n\tfunction credential_tracing() public returns(uint256,uint256){\r\n\t        CredentialTraceTimes[msg.sender] += 1;\r\n\t    return (c_x,c_y);\r\n\t}\r\n\t\r\n\tfunction identity_tracing() public returns(uint256,uint256){\r\n\t        CredentialTraceTimes[msg.sender] += 1;\r\n\t     return (i_x,i_y);\r\n\t}\r\n\r\n\t// trace the credential\r\n    function credential_calculating(uint256 xiupsilon_x, uint256 xiupsilon_y) public{\r\n\t    if (CredentialTraceTimes[msg.sender] == 0){\r\n            (c_x,c_y) = multiplyScalar(xiupsilon_x, xiupsilon_y, xt);\r\n        }\r\n        credential_tracing_log(xiupsilon_x);\r\n    }\r\n    \r\n    // trace the identity\r\n    function identity_calculating(uint256 zeta1_x, uint256 zeta1_y) public{\r\n        if (IdentityTraceTimes[msg.sender] == 0){\r\n            uint256 nxt = inverseMod(xt, n);\r\n            (i_x,i_y) = multiplyScalar(zeta1_x, zeta1_y, nxt);\t\r\n        }\r\n        identity_tracing_log(zeta1_x);\r\n    }\r\n    \r\n    function rand_less_than(uint256 upper_bound) private returns(uint256){\r\n        uint256 r = PRNG() % upper_bound;\r\n\t\treturn r;\r\n    }\r\n    \r\n    function PRNG() private view returns(uint256) {\r\n        return uint256(uint256(keccak256(abi.encodePacked(block.timestamp, block.difficulty,msg.sender,now)))) ;\r\n    }\r\n\r\n    /**\r\n     * @dev Inverse of u in the field of modulo m.\r\n     */\r\n    function inverseMod(uint u, uint m) internal pure\r\n        returns (uint)\r\n    {\r\n        if (u == 0 || u == m || m == 0)\r\n            return 0;\r\n        if (u > m)\r\n            u = u % m;\r\n\r\n        int t1;\r\n        int t2 = 1;\r\n        uint r1 = m;\r\n        uint r2 = u;\r\n        uint q;\r\n\r\n        while (r2 != 0) {\r\n            q = r1 / r2;\r\n            (t1, t2, r1, r2) = (t2, t1 - int(q) * t2, r2, r1 - q * r2);\r\n        }\r\n\r\n        if (t1 < 0)\r\n            return (m - uint(-t1));\r\n\r\n        return uint(t1);\r\n    }\r\n\r\n    /**\r\n     * @dev Transform affine coordinates into projective coordinates.\r\n     */\r\n    function toProjectivePoint(uint x0, uint y0) public view\r\n        returns (uint[3] memory P)\r\n    {\r\n        P[2] = addmod(0, 1, p);\r\n        P[0] = mulmod(x0, P[2], p);\r\n        P[1] = mulmod(y0, P[2], p);\r\n    }\r\n\r\n    /**\r\n     * @dev Add two points in affine coordinates and return projective point.\r\n     */\r\n    function addAndReturnProjectivePoint(uint x1, uint y1, uint x2, uint y2) public view\r\n        returns (uint[3] memory P)\r\n    {\r\n        uint x;\r\n        uint y;\r\n        (x, y) = add(x1, y1, x2, y2);\r\n        P = toProjectivePoint(x, y);\r\n    }\r\n\r\n    /**\r\n     * @dev Transform from projective to affine coordinates.\r\n     */\r\n    function toAffinePoint(uint x0, uint y0, uint z0) public view\r\n        returns (uint x1, uint y1)\r\n    {\r\n        uint z0Inv;\r\n        z0Inv = inverseMod(z0, p);\r\n        x1 = mulmod(x0, z0Inv, p);\r\n        y1 = mulmod(y0, z0Inv, p);\r\n    }\r\n\r\n    /**\r\n     * @dev Return the zero curve in projective coordinates.\r\n     */\r\n    function zeroProj() public view\r\n        returns (uint x, uint y, uint z)\r\n    {\r\n        return (0, 1, 0);\r\n    }\r\n\r\n    /**\r\n     * @dev Return the zero curve in affine coordinates.\r\n     */\r\n    function zeroAffine() public pure\r\n        returns (uint x, uint y)\r\n    {\r\n        return (0, 0);\r\n    }\r\n\r\n    /**\r\n     * @dev Check if the curve is the zero curve.\r\n     */\r\n    function isZeroCurve(uint x0, uint y0) public view\r\n        returns (bool isZero)\r\n    {\r\n        if(x0 == 0 && y0 == 0) {\r\n            return true;\r\n        }\r\n        return false;\r\n    }\r\n\r\n    /**\r\n     * @dev Check if a point in affine coordinates is on the curve.\r\n     */\r\n    function isOnCurve(uint x, uint y) public view\r\n        returns (bool)\r\n    {\r\n        if (0 == x || x == p || 0 == y || y == p) {\r\n            return false;\r\n        }\r\n\r\n        uint LHS = mulmod(y, y, p); // y^2\r\n        uint RHS = mulmod(mulmod(x, x, p), x, p); // x^3\r\n\r\n        if (a != 0) {\r\n            RHS = addmod(RHS, mulmod(x, a, p), p); // x^3 + a*x\r\n        }\r\n        if (b != 0) {\r\n            RHS = addmod(RHS, b, p); // x^3 + a*x + b\r\n        }\r\n\r\n        return LHS == RHS;\r\n    }\r\n\r\n    /**\r\n     * @dev Double an elliptic curve point in projective coordinates. See\r\n     * https://www.nayuki.io/page/elliptic-curve-point-addition-in-projective-coordinates\r\n     */\r\n    function twiceProj(uint x0, uint y0, uint z0) public view\r\n        returns (uint x1, uint y1, uint z1)\r\n    {\r\n        uint t;\r\n        uint u;\r\n        uint v;\r\n        uint w;\r\n\r\n        if(isZeroCurve(x0, y0)) {\r\n            return zeroProj();\r\n        }\r\n\r\n        u = mulmod(y0, z0, p);\r\n        u = mulmod(u, 2, p);\r\n\r\n        v = mulmod(u, x0, p);\r\n        v = mulmod(v, y0, p);\r\n        v = mulmod(v, 2, p);\r\n\r\n        x0 = mulmod(x0, x0, p);\r\n        t = mulmod(x0, 3, p);\r\n\r\n        z0 = mulmod(z0, z0, p);\r\n        z0 = mulmod(z0, a, p);\r\n        t = addmod(t, z0, p);\r\n\r\n        w = mulmod(t, t, p);\r\n        x0 = mulmod(2, v, p);\r\n        w = addmod(w, p-x0, p);\r\n\r\n        x0 = addmod(v, p-w, p);\r\n        x0 = mulmod(t, x0, p);\r\n        y0 = mulmod(y0, u, p);\r\n        y0 = mulmod(y0, y0, p);\r\n        y0 = mulmod(2, y0, p);\r\n        y1 = addmod(x0, p-y0, p);\r\n\r\n        x1 = mulmod(u, w, p);\r\n\r\n        z1 = mulmod(u, u, p);\r\n        z1 = mulmod(z1, u, p);\r\n    }\r\n\r\n    /**\r\n     * @dev Add two elliptic curve points in projective coordinates. See\r\n     * https://www.nayuki.io/page/elliptic-curve-point-addition-in-projective-coordinates\r\n     */\r\n    function addProj(uint x0, uint y0, uint z0, uint x1, uint y1, uint z1) public view\r\n        returns (uint x2, uint y2, uint z2)\r\n    {\r\n        uint t0;\r\n        uint t1;\r\n        uint u0;\r\n        uint u1;\r\n\r\n        if (isZeroCurve(x0, y0)) {\r\n            return (x1, y1, z1);\r\n        }\r\n        else if (isZeroCurve(x1, y1)) {\r\n            return (x0, y0, z0);\r\n        }\r\n\r\n        t0 = mulmod(y0, z1, p);\r\n        t1 = mulmod(y1, z0, p);\r\n\r\n        u0 = mulmod(x0, z1, p);\r\n        u1 = mulmod(x1, z0, p);\r\n\r\n        if (u0 == u1) {\r\n            if (t0 == t1) {\r\n                return twiceProj(x0, y0, z0);\r\n            }\r\n            else {\r\n                return zeroProj();\r\n            }\r\n        }\r\n\r\n        (x2, y2, z2) = addProj2(mulmod(z0, z1, p), u0, u1, t1, t0);\r\n    }\r\n\r\n    /**\r\n     * @dev Helper function that splits addProj to avoid too many local variables.\r\n     */\r\n    function addProj2(uint v, uint u0, uint u1, uint t1, uint t0) private view\r\n        returns (uint x2, uint y2, uint z2)\r\n    {\r\n        uint u;\r\n        uint u2;\r\n        uint u3;\r\n        uint w;\r\n        uint t;\r\n\r\n        t = addmod(t0, p-t1, p);\r\n        u = addmod(u0, p-u1, p);\r\n        u2 = mulmod(u, u, p);\r\n\r\n        w = mulmod(t, t, p);\r\n        w = mulmod(w, v, p);\r\n        u1 = addmod(u1, u0, p);\r\n        u1 = mulmod(u1, u2, p);\r\n        w = addmod(w, p-u1, p);\r\n\r\n        x2 = mulmod(u, w, p);\r\n\r\n        u3 = mulmod(u2, u, p);\r\n        u0 = mulmod(u0, u2, p);\r\n        u0 = addmod(u0, p-w, p);\r\n        t = mulmod(t, u0, p);\r\n        t0 = mulmod(t0, u3, p);\r\n\r\n        y2 = addmod(t, p-t0, p);\r\n\r\n        z2 = mulmod(u3, v, p);\r\n    }\r\n\r\n    /**\r\n     * @dev Add two elliptic curve points in affine coordinates.\r\n     */\r\n    function add(uint x0, uint y0, uint x1, uint y1) public view\r\n        returns (uint, uint)\r\n    {\r\n        uint z0;\r\n\r\n        (x0, y0, z0) = addProj(x0, y0, 1, x1, y1, 1);\r\n\r\n        return toAffinePoint(x0, y0, z0);\r\n    }\r\n\r\n    /**\r\n     * @dev Double an elliptic curve point in affine coordinates.\r\n     */\r\n    function twice(uint x0, uint y0) public view\r\n        returns (uint, uint)\r\n    {\r\n        uint z0;\r\n\r\n        (x0, y0, z0) = twiceProj(x0, y0, 1);\r\n\r\n        return toAffinePoint(x0, y0, z0);\r\n    }\r\n\r\n    /**\r\n     * @dev Multiply an elliptic curve point by a 2 power base (i.e., (2^exp)*P)).\r\n     */\r\n    function multiplyPowerBase2(uint x0, uint y0, uint exp) public view\r\n        returns (uint, uint)\r\n    {\r\n        uint base2X = x0;\r\n        uint base2Y = y0;\r\n        uint base2Z = 1;\r\n\r\n        for(uint i = 0; i < exp; i++) {\r\n            (base2X, base2Y, base2Z) = twiceProj(base2X, base2Y, base2Z);\r\n        }\r\n\r\n        return toAffinePoint(base2X, base2Y, base2Z);\r\n    }\r\n\r\n    /**\r\n     * @dev Multiply an elliptic curve point by a scalar.\r\n     */\r\n    function multiplyScalar(uint x0, uint y0, uint scalar) public view\r\n        returns (uint x1, uint y1)\r\n    {\r\n        if(scalar == 0) {\r\n            return zeroAffine();\r\n        }\r\n        else if (scalar == 1) {\r\n            return (x0, y0);\r\n        }\r\n        else if (scalar == 2) {\r\n            return twice(x0, y0);\r\n        }\r\n\r\n        uint base2X = x0;\r\n        uint base2Y = y0;\r\n        uint base2Z = 1;\r\n        uint z1 = 1;\r\n        x1 = x0;\r\n        y1 = y0;\r\n\r\n        if(scalar%2 == 0) {\r\n            x1 = y1 = 0;\r\n        }\r\n\r\n        scalar = scalar >> 1;\r\n\r\n        while(scalar > 0) {\r\n            (base2X, base2Y, base2Z) = twiceProj(base2X, base2Y, base2Z);\r\n\r\n            if(scalar%2 == 1) {\r\n                (x1, y1, z1) = addProj(base2X, base2Y, base2Z, x1, y1, z1);\r\n            }\r\n\r\n            scalar = scalar >> 1;\r\n        }\r\n\r\n        return toAffinePoint(x1, y1, z1);\r\n    }\r\n\r\n    /**\r\n     * @dev Multiply the curve's generator point by a scalar.\r\n     */\r\n    function multipleGeneratorByScalar(uint scalar) public view\r\n        returns (uint, uint)\r\n    {\r\n        return multiplyScalar(gx, gy, scalar);\r\n    }\r\n}",
  "abi": [
    {
      "constant": true,
      "inputs": [],
      "name": "gx",
      "outputs": [
        {
          "name": "",
          "type": "uint256"
        }
      ],
      "payable": false,
      "stateMutability": "view",
      "type": "function"
    },
    {
      "constant": true,
      "inputs": [],
      "name": "a",
      "outputs": [
        {
          "name": "",
          "type": "uint256"
        }
      ],
      "payable": false,
      "stateMutability": "view",
      "type": "function"
    },
    {
      "constant": true,
      "inputs": [],
      "name": "gy",
      "outputs": [
        {
          "name": "",
          "type": "uint256"
        }
      ],
      "payable": false,
      "stateMutability": "view",
      "type": "function"
    },
    {
      "constant": true,
      "inputs": [],
      "name": "n",
      "outputs": [
        {
          "name": "",
          "type": "uint256"
        }
      ],
      "payable": false,
      "stateMutability": "view",
      "type": "function"
    },
    {
      "constant": true,
      "inputs": [],
      "name": "yt_x",
      "outputs": [
        {
          "name": "",
          "type": "uint256"
        }
      ],
      "payable": false,
      "stateMutability": "view",
      "type": "function"
    },
    {
      "constant": true,
      "inputs": [],
      "name": "tracerCreator",
      "outputs": [
        {
          "name": "",
          "type": "address"
        }
      ],
      "payable": false,
      "stateMutability": "view",
      "type": "function"
    },
    {
      "constant": true,
      "inputs": [],
      "name": "b",
      "outputs": [
        {
          "name": "",
          "type": "uint256"
        }
      ],
      "payable": false,
      "stateMutability": "view",
      "type": "function"
    },
    {
      "constant": true,
      "inputs": [],
      "name": "seed",
      "outputs": [
        {
          "name": "",
          "type": "uint256"
        }
      ],
      "payable": false,
      "stateMutability": "view",
      "type": "function"
    },
    {
      "constant": true,
      "inputs": [],
      "name": "p",
      "outputs": [
        {
          "name": "",
          "type": "uint256"
        }
      ],
      "payable": false,
      "stateMutability": "view",
      "type": "function"
    },
    {
      "constant": true,
      "inputs": [],
      "name": "yt_y",
      "outputs": [
        {
          "name": "",
          "type": "uint256"
        }
      ],
      "payable": false,
      "stateMutability": "view",
      "type": "function"
    },
    {
      "inputs": [],
      "payable": false,
      "stateMutability": "nonpayable",
      "type": "constructor"
    },
    {
      "anonymous": false,
      "inputs": [
        {
          "indexed": false,
          "name": "information",
          "type": "string"
        },
        {
          "indexed": true,
          "name": "sender",
          "type": "address"
        },
        {
          "indexed": false,
          "name": "timestamp",
          "type": "uint256"
        },
        {
          "indexed": false,
          "name": "calltimes",
          "type": "uint256"
        },
        {
          "indexed": false,
          "name": "obj",
          "type": "uint256"
        }
      ],
      "name": "trace_log",
      "type": "event"
    },
    {
      "constant": false,
      "inputs": [
        {
          "name": "_a",
          "type": "uint256"
        },
        {
          "name": "_b",
          "type": "uint256"
        },
        {
          "name": "_p",
          "type": "uint256"
        },
        {
          "name": "_n",
          "type": "uint256"
        },
        {
          "name": "_gx",
          "type": "uint256"
        },
        {
          "name": "_gy",
          "type": "uint256"
        }
      ],
      "name": "register_parameter",
      "outputs": [],
      "payable": false,
      "stateMutability": "nonpayable",
      "type": "function"
    },
    {
      "constant": true,
      "inputs": [],
      "name": "get_private_key",
      "outputs": [
        {
          "name": "",
          "type": "uint256"
        }
      ],
      "payable": false,
      "stateMutability": "view",
      "type": "function"
    },
    {
      "constant": false,
      "inputs": [],
      "name": "calculate_public_key",
      "outputs": [],
      "payable": false,
      "stateMutability": "nonpayable",
      "type": "function"
    },
    {
      "constant": true,
      "inputs": [],
      "name": "get_public_key",
      "outputs": [
        {
          "name": "",
          "type": "uint256"
        },
        {
          "name": "",
          "type": "uint256"
        }
      ],
      "payable": false,
      "stateMutability": "view",
      "type": "function"
    },
    {
      "constant": false,
      "inputs": [],
      "name": "credential_tracing",
      "outputs": [
        {
          "name": "",
          "type": "uint256"
        },
        {
          "name": "",
          "type": "uint256"
        }
      ],
      "payable": false,
      "stateMutability": "nonpayable",
      "type": "function"
    },
    {
      "constant": false,
      "inputs": [],
      "name": "identity_tracing",
      "outputs": [
        {
          "name": "",
          "type": "uint256"
        },
        {
          "name": "",
          "type": "uint256"
        }
      ],
      "payable": false,
      "stateMutability": "nonpayable",
      "type": "function"
    },
    {
      "constant": false,
      "inputs": [
        {
          "name": "xiupsilon_x",
          "type": "uint256"
        },
        {
          "name": "xiupsilon_y",
          "type": "uint256"
        }
      ],
      "name": "credential_calculating",
      "outputs": [],
      "payable": false,
      "stateMutability": "nonpayable",
      "type": "function"
    },
    {
      "constant": false,
      "inputs": [
        {
          "name": "zeta1_x",
          "type": "uint256"
        },
        {
          "name": "zeta1_y",
          "type": "uint256"
        }
      ],
      "name": "identity_calculating",
      "outputs": [],
      "payable": false,
      "stateMutability": "nonpayable",
      "type": "function"
    },
    {
      "constant": true,
      "inputs": [
        {
          "name": "x0",
          "type": "uint256"
        },
        {
          "name": "y0",
          "type": "uint256"
        }
      ],
      "name": "toProjectivePoint",
      "outputs": [
        {
          "name": "P",
          "type": "uint256[3]"
        }
      ],
      "payable": false,
      "stateMutability": "view",
      "type": "function"
    },
    {
      "constant": true,
      "inputs": [
        {
          "name": "x1",
          "type": "uint256"
        },
        {
          "name": "y1",
          "type": "uint256"
        },
        {
          "name": "x2",
          "type": "uint256"
        },
        {
          "name": "y2",
          "type": "uint256"
        }
      ],
      "name": "addAndReturnProjectivePoint",
      "outputs": [
        {
          "name": "P",
          "type": "uint256[3]"
        }
      ],
      "payable": false,
      "stateMutability": "view",
      "type": "function"
    },
    {
      "constant": true,
      "inputs": [
        {
          "name": "x0",
          "type": "uint256"
        },
        {
          "name": "y0",
          "type": "uint256"
        },
        {
          "name": "z0",
          "type": "uint256"
        }
      ],
      "name": "toAffinePoint",
      "outputs": [
        {
          "name": "x1",
          "type": "uint256"
        },
        {
          "name": "y1",
          "type": "uint256"
        }
      ],
      "payable": false,
      "stateMutability": "view",
      "type": "function"
    },
    {
      "constant": true,
      "inputs": [],
      "name": "zeroProj",
      "outputs": [
        {
          "name": "x",
          "type": "uint256"
        },
        {
          "name": "y",
          "type": "uint256"
        },
        {
          "name": "z",
          "type": "uint256"
        }
      ],
      "payable": false,
      "stateMutability": "view",
      "type": "function"
    },
    {
      "constant": true,
      "inputs": [],
      "name": "zeroAffine",
      "outputs": [
        {
          "name": "x",
          "type": "uint256"
        },
        {
          "name": "y",
          "type": "uint256"
        }
      ],
      "payable": false,
      "stateMutability": "pure",
      "type": "function"
    },
    {
      "constant": true,
      "inputs": [
        {
          "name": "x0",
          "type": "uint256"
        },
        {
          "name": "y0",
          "type": "uint256"
        }
      ],
      "name": "isZeroCurve",
      "outputs": [
        {
          "name": "isZero",
          "type": "bool"
        }
      ],
      "payable": false,
      "stateMutability": "view",
      "type": "function"
    },
    {
      "constant": true,
      "inputs": [
        {
          "name": "x",
          "type": "uint256"
        },
        {
          "name": "y",
          "type": "uint256"
        }
      ],
      "name": "isOnCurve",
      "outputs": [
        {
          "name": "",
          "type": "bool"
        }
      ],
      "payable": false,
      "stateMutability": "view",
      "type": "function"
    },
    {
      "constant": true,
      "inputs": [
        {
          "name": "x0",
          "type": "uint256"
        },
        {
          "name": "y0",
          "type": "uint256"
        },
        {
          "name": "z0",
          "type": "uint256"
        }
      ],
      "name": "twiceProj",
      "outputs": [
        {
          "name": "x1",
          "type": "uint256"
        },
        {
          "name": "y1",
          "type": "uint256"
        },
        {
          "name": "z1",
          "type": "uint256"
        }
      ],
      "payable": false,
      "stateMutability": "view",
      "type": "function"
    },
    {
      "constant": true,
      "inputs": [
        {
          "name": "x0",
          "type": "uint256"
        },
        {
          "name": "y0",
          "type": "uint256"
        },
        {
          "name": "z0",
          "type": "uint256"
        },
        {
          "name": "x1",
          "type": "uint256"
        },
        {
          "name": "y1",
          "type": "uint256"
        },
        {
          "name": "z1",
          "type": "uint256"
        }
      ],
      "name": "addProj",
      "outputs": [
        {
          "name": "x2",
          "type": "uint256"
        },
        {
          "name": "y2",
          "type": "uint256"
        },
        {
          "name": "z2",
          "type": "uint256"
        }
      ],
      "payable": false,
      "stateMutability": "view",
      "type": "function"
    },
    {
      "constant": true,
      "inputs": [
        {
          "name": "x0",
          "type": "uint256"
        },
        {
          "name": "y0",
          "type": "uint256"
        },
        {
          "name": "x1",
          "type": "uint256"
        },
        {
          "name": "y1",
          "type": "uint256"
        }
      ],
      "name": "add",
      "outputs": [
        {
          "name": "",
          "type": "uint256"
        },
        {
          "name": "",
          "type": "uint256"
        }
      ],
      "payable": false,
      "stateMutability": "view",
      "type": "function"
    },
    {
      "constant": true,
      "inputs": [
        {
          "name": "x0",
          "type": "uint256"
        },
        {
          "name": "y0",
          "type": "uint256"
        }
      ],
      "name": "twice",
      "outputs": [
        {
          "name": "",
          "type": "uint256"
        },
        {
          "name": "",
          "type": "uint256"
        }
      ],
      "payable": false,
      "stateMutability": "view",
      "type": "function"
    },
    {
      "constant": true,
      "inputs": [
        {
          "name": "x0",
          "type": "uint256"
        },
        {
          "name": "y0",
          "type": "uint256"
        },
        {
          "name": "exp",
          "type": "uint256"
        }
      ],
      "name": "multiplyPowerBase2",
      "outputs": [
        {
          "name": "",
          "type": "uint256"
        },
        {
          "name": "",
          "type": "uint256"
        }
      ],
      "payable": false,
      "stateMutability": "view",
      "type": "function"
    },
    {
      "constant": true,
      "inputs": [
        {
          "name": "x0",
          "type": "uint256"
        },
        {
          "name": "y0",
          "type": "uint256"
        },
        {
          "name": "scalar",
          "type": "uint256"
        }
      ],
      "name": "multiplyScalar",
      "outputs": [
        {
          "name": "x1",
          "type": "uint256"
        },
        {
          "name": "y1",
          "type": "uint256"
        }
      ],
      "payable": false,
      "stateMutability": "view",
      "type": "function"
    },
    {
      "constant": true,
      "inputs": [
        {
          "name": "scalar",
          "type": "uint256"
        }
      ],
      "name": "multipleGeneratorByScalar",
      "outputs": [
        {
          "name": "",
          "type": "uint256"
        },
        {
          "name": "",
          "type": "uint256"
        }
      ],
      "payable": false,
      "stateMutability": "view",
      "type": "function"
    }
  ],
  "bytecode": "0x60806040526000600b5534801561001557600080fd5b5033600660006101000a81548173ffffffffffffffffffffffffffffffffffffffff021916908373ffffffffffffffffffffffffffffffffffffffff160217905550611894806100666000396000f300608060405260043610610196576000357c0100000000000000000000000000000000000000000000000000000000900463ffffffff16806306c91ce31461019b57806309d3ef31146101c65780630afb4ddc146102185780630b0dbcfa146102605780630dbe671f146102af57806314c67060146102da5780632d58c9a2146103135780632e52d6061461033e578063322b24aa14610369578063338d0dd6146103c557806336996a95146103fc5780634b06d3cb146104275780634df7e3d01461047e5780634e12bb5c146104a95780635ee27ac2146104d4578063600f005114610506578063675ca0431461051d578063713eca281461057957806372fb4a14146106005780637d94792a1461065c5780637ec8da8d1461068757806384dfba46146106fa578063919f7a251461072c5780639ae8886a1461075e5780639c8316cf146107895780639e572b16146107c0578063c30cfa2d1461081f578063c80edca41461086e578063d8bfff3a146108d1578063e022d77c146108fc578063f214aba014610962578063fdab4989146109e3575b600080fd5b3480156101a757600080fd5b506101b0610a15565b6040518082815260200191505060405180910390f35b3480156101d257600080fd5b506101fb6004803603810190808035906020019092919080359060200190929190505050610a1b565b604051808381526020018281526020019250505060405180910390f35b34801561022457600080fd5b5061024360048036038101908080359060200190929190505050610a4f565b604051808381526020018281526020019250505060405180910390f35b34801561026c57600080fd5b506102956004803603810190808035906020019092919080359060200190929190505050610a6a565b604051808215151515815260200191505060405180910390f35b3480156102bb57600080fd5b506102c4610b30565b6040518082815260200191505060405180910390f35b3480156102e657600080fd5b506102ef610b36565b60405180848152602001838152602001828152602001935050505060405180910390f35b34801561031f57600080fd5b50610328610b54565b6040518082815260200191505060405180910390f35b34801561034a57600080fd5b50610353610b5a565b6040518082815260200191505060405180910390f35b34801561037557600080fd5b506103a8600480360381019080803590602001909291908035906020019092919080359060200190929190505050610b60565b604051808381526020018281526020019250505060405180910390f35b3480156103d157600080fd5b506103fa6004803603810190808035906020019092919080359060200190929190505050610bbf565b005b34801561040857600080fd5b50610411610c46565b6040518082815260200191505060405180910390f35b34801561043357600080fd5b5061043c610c4c565b604051808273ffffffffffffffffffffffffffffffffffffffff1673ffffffffffffffffffffffffffffffffffffffff16815260200191505060405180910390f35b34801561048a57600080fd5b50610493610c72565b6040518082815260200191505060405180910390f35b3480156104b557600080fd5b506104be610c78565b6040518082815260200191505060405180910390f35b3480156104e057600080fd5b506104e9610c82565b604051808381526020018281526020019250505060405180910390f35b34801561051257600080fd5b5061051b610c93565b005b34801561052957600080fd5b5061055c600480360381019080803590602001909291908035906020019092919080359060200190929190505050610cba565b604051808381526020018281526020019250505060405180910390f35b34801561058557600080fd5b506105c260048036038101908080359060200190929190803590602001909291908035906020019092919080359060200190929190505050610cf8565b6040518082600360200280838360005b838110156105ed5780820151818401526020810190506105d2565b5050505090500191505060405180910390f35b34801561060c57600080fd5b5061063f600480360381019080803590602001909291908035906020019092919080359060200190929190505050610d2d565b604051808381526020018281526020019250505060405180910390f35b34801561066857600080fd5b50610671610e39565b6040518082815260200191505060405180910390f35b34801561069357600080fd5b506106bc6004803603810190808035906020019092919080359060200190929190505050610e3f565b6040518082600360200280838360005b838110156106e75780820151818401526020810190506106cc565b5050505090500191505060405180910390f35b34801561070657600080fd5b5061070f610eea565b604051808381526020018281526020019250505060405180910390f35b34801561073857600080fd5b50610741610efe565b604051808381526020018281526020019250505060405180910390f35b34801561076a57600080fd5b50610773610f5d565b6040518082815260200191505060405180910390f35b34801561079557600080fd5b506107be6004803603810190808035906020019092919080359060200190929190505050610f63565b005b3480156107cc57600080fd5b5061081d600480360381019080803590602001909291908035906020019092919080359060200190929190803590602001909291908035906020019092919080359060200190929190505050610fda565b005b34801561082b57600080fd5b50610854600480360381019080803590602001909291908035906020019092919050505061101b565b604051808215151515815260200191505060405180910390f35b34801561087a57600080fd5b506108ad600480360381019080803590602001909291908035906020019092919080359060200190929190505050611045565b60405180848152602001838152602001828152602001935050505060405180910390f35b3480156108dd57600080fd5b506108e6611209565b6040518082815260200191505060405180910390f35b34801561090857600080fd5b506109456004803603810190808035906020019092919080359060200190929190803590602001909291908035906020019092919050505061120f565b604051808381526020018281526020019250505060405180910390f35b34801561096e57600080fd5b506109bf600480360381019080803590602001909291908035906020019092919080359060200190929190803590602001909291908035906020019092919080359060200190929190505050611249565b60405180848152602001838152602001828152602001935050505060405180910390f35b3480156109ef57600080fd5b506109f8611343565b604051808381526020018281526020019250505060405180910390f35b60005481565b6000806000610a2c85856001611045565b809350819650829750505050610a43858583610cba565b92509250509250929050565b600080610a6160005460015485610d2d565b91509150915091565b60008060008460001480610a7f575060025485145b80610a8a5750836000145b80610a96575060025484145b15610aa45760009250610b28565b600254801515610ab057fe5b8485099150600254801515610ac157fe5b85600254801515610ace57fe5b8788090990506000600454141515610b0257600254801515610aec57fe5b600254801515610af857fe5b6004548709820890505b6000600554141515610b2257600254801515610b1a57fe5b600554820890505b80821492505b505092915050565b60045481565b60008060008060016000829250819150809050925092509250909192565b60015481565b60035481565b60008060008060008088935087925060019150600090505b86811015610ba457610b8b848484611045565b8094508195508296505050508080600101915050610b78565b610baf848484610cba565b9550955050505050935093915050565b600080600960003373ffffffffffffffffffffffffffffffffffffffff1673ffffffffffffffffffffffffffffffffffffffff168152602001908152602001600020541415610c3857610c16600c546003546113a2565b9050610c23838383610d2d565b60116000601260008491905055839190505550505b610c4183611452565b505050565b600d5481565b600660009054906101000a900473ffffffffffffffffffffffffffffffffffffffff1681565b60055481565b6000600c54905090565b600080600d54600e54915091509091565b610ca4600054600154600c54610d2d565b600d6000600e6000849190505583919050555050565b6000806000610ccb846002546113a2565b9050600254801515610cd957fe5b8187099250600254801515610cea57fe5b818609915050935093915050565b610d00611845565b600080610d0f8787878761120f565b8092508193505050610d218282610e3f565b92505050949350505050565b6000806000806000806000871415610d5057610d47610eea565b95509550610e2d565b6001871415610d6457888895509550610e2d565b6002871415610d8057610d778989610a1b565b95509550610e2d565b88935087925060019150600190508895508794506000600288811515610da257fe5b061415610db157600094508495505b6001879060020a900496505b6000871115610e1d57610dd1848484611045565b8094508195508296505050506001600288811515610deb57fe5b061415610e0d57610e00848484898986611249565b8093508197508298505050505b6001879060020a90049650610dbd565b610e28868683610cba565b955095505b50505050935093915050565b600b5481565b610e47611845565b600254801515610e5357fe5b6001600008816002600381101515610e6757fe5b602002018181525050600254801515610e7c57fe5b816002600381101515610e8b57fe5b60200201518409816000600381101515610ea157fe5b602002018181525050600254801515610eb657fe5b816002600381101515610ec557fe5b60200201518309816001600381101515610edb57fe5b60200201818152505092915050565b600080600080819150809050915091509091565b6000806001600760003373ffffffffffffffffffffffffffffffffffffffff1673ffffffffffffffffffffffffffffffffffffffff16815260200190815260200160002060008282540192505081905550601154601254915091509091565b60025481565b6000600760003373ffffffffffffffffffffffffffffffffffffffff1673ffffffffffffffffffffffffffffffffffffffff168152602001908152602001600020541415610fcd57610fb88282600c54610d2d565b600f6000601060008491905055839190505550505b610fd68261152b565b5050565b85600481905550846005819055508360028190555082600381905550816000819055508060018190555061100d83611604565b600c81905550505050505050565b6000808314801561102c5750600082145b1561103a576001905061103f565b600090505b92915050565b600080600080600080600061105a8a8a61101b565b1561107257611067610b36565b9650965096506111fc565b60025480151561107e57fe5b888a09925060025480151561108f57fe5b6002840992506002548015156110a157fe5b8a840991506002548015156110b257fe5b89830991506002548015156110c357fe5b6002830991506002548015156110d557fe5b8a8b0999506002548015156110e657fe5b60038b0993506002548015156110f857fe5b888909975060025480151561110957fe5b6004548909975060025480151561111c57fe5b888508935060025480151561112d57fe5b848509905060025480151561113e57fe5b82600209995060025480151561115057fe5b8a600254038208905060025480151561116557fe5b81600254038308995060025480151561117a57fe5b8a8509995060025480151561118b57fe5b838a09985060025480151561119c57fe5b898a0998506002548015156111ad57fe5b8960020998506002548015156111bf57fe5b89600254038b0895506002548015156111d457fe5b81840996506002548015156111e557fe5b83840994506002548015156111f657fe5b83860994505b5050505093509350939050565b600e5481565b60008060006112248787600188886001611249565b80935081985082995050505061123b878783610cba565b925092505094509492505050565b600080600080600080600061125e8d8d61101b565b1561127157898989965096509650611333565b61127b8a8a61101b565b1561128e578c8c8c965096509650611333565b60025480151561129a57fe5b888d0993506002548015156112ab57fe5b8b8a0992506002548015156112bc57fe5b888e0991506002548015156112cd57fe5b8b8b0990508082141561130b57828414156112f8576112ed8d8d8d611045565b965096509650611333565b611300610b36565b965096509650611333565b61132660025480151561131a57fe5b898d0983838688611625565b8097508198508299505050505b5050505096509650969350505050565b6000806001600760003373ffffffffffffffffffffffffffffffffffffffff1673ffffffffffffffffffffffffffffffffffffffff16815260200190815260200160002060008282540192505081905550600f54601054915091509091565b60008060008060008060008814806113b957508688145b806113c45750600087145b156113d25760009550611447565b868811156113e95786888115156113e557fe5b0697505b600193508692508791505b60008214151561142d57818381151561140957fe5b049050838482028603838484028603809550819650829750839850505050506113f4565b6000851215611443578460000387039550611447565b8495505b505050505092915050565b3373ffffffffffffffffffffffffffffffffffffffff167fecaf2ce53237aac054ad6ae1d2bd5f41f791b589000795e92aeccc771d693c9442600960003373ffffffffffffffffffffffffffffffffffffffff1673ffffffffffffffffffffffffffffffffffffffff16815260200190815260200160002054846040518080602001858152602001848152602001838152602001828103825260168152602001807f63726564656e7469616c5f74726163696e675f6c6f670000000000000000000081525060200194505050505060405180910390a250565b3373ffffffffffffffffffffffffffffffffffffffff167fecaf2ce53237aac054ad6ae1d2bd5f41f791b589000795e92aeccc771d693c9442600760003373ffffffffffffffffffffffffffffffffffffffff1673ffffffffffffffffffffffffffffffffffffffff16815260200190815260200160002054846040518080602001858152602001848152602001838152602001828103825260168152602001807f63726564656e7469616c5f74726163696e675f6c6f670000000000000000000081525060200194505050505060405180910390a250565b60008082611610611765565b81151561161957fe5b06905080915050919050565b60008060008060008060008060025480151561163d57fe5b8a600254038a08905060025480151561165257fe5b8b600254038d08945060025480151561166757fe5b858609935060025480151561167857fe5b818209915060025480151561168957fe5b8d8309915060025480151561169a57fe5b8c8c089a506002548015156116ab57fe5b848c099a506002548015156116bc57fe5b8b60025403830891506002548015156116d157fe5b82860997506002548015156116e257fe5b85850992506002548015156116f357fe5b848d099b5060025480151561170457fe5b82600254038d089b5060025480151561171957fe5b8c8209905060025480151561172a57fe5b838a09985060025480151561173b57fe5b89600254038208965060025480151561175057fe5b8d840995505050505050955095509592505050565b600042443342604051602001808581526020018481526020018373ffffffffffffffffffffffffffffffffffffffff1673ffffffffffffffffffffffffffffffffffffffff166c010000000000000000000000000281526014018281526020019450505050506040516020818303038152906040526040518082805190602001908083835b60208310151561180f57805182526020820191506020810190506020830392506117ea565b6001836020036101000a038019825116818451168082178552505050505050905001915050604051809103902060019004905090565b6060604051908101604052806003906020820280388339808201915050905050905600a165627a7a72305820021faf03dc0cf6bad70268787dda051e3423929a9cf9a296b4cc039cd43270fe0029",
  "compiler": {
    "name": "solc",
    "version": "0.4.25+commit.59dbf8f1.Emscripten.clang"
  },
  "contractName": "AuditTracer"
}