{
  "sourcePath": "/project/contracts/AuditTracer.sol",
  "source": "pragma solidity ^0.4.18;\r\n\r\n//author:rujia\r\n//website:www.rujia.uk\r\n//version:1.0\r\n//ref: https://github.com/tdrerup/elliptic-curve-solidity/blob/master/contracts/curves/EllipticCurve.sol\r\n\r\ncontract AuditTracer {\r\n    \r\n    uint256 public gx;\r\n    uint256 public gy;\r\n    uint256 public p;\r\n\tuint256 public n;\r\n    uint256 public a;\r\n    uint256 public b;\r\n\tuint256 public credential_execution_time;\r\n\tuint256 public identity_execution_time;\r\n \r\n    // The address of the account that created this ballot.\r\n    address public tracerCreator;\r\n    mapping (address => uint256) private CredentialTraceTimes;\r\n    mapping (address => uint256) private CredentialTraceResults;\r\n    \r\n    mapping (address => uint256) private IdentityTraceTimes;\r\n    mapping (address => uint256) private IdentityTraceResults;\r\n\t\r\n    uint256 public seed = 0;\r\n    uint256 private xt;\r\n    \r\n    uint256 public yt_x;\r\n    uint256 public yt_y;\r\n    \r\n    uint256 private c_x;\r\n    uint256 private c_y;\r\n    \r\n    uint256 private i_x;\r\n    uint256 private i_y;\r\n    \r\n    constructor() public {\r\n        tracerCreator = msg.sender;\r\n    }\r\n \r\n    event trace_log(\r\n        string information,\r\n        address indexed sender,\r\n        uint256 timestamp,\r\n        uint256 calltimes,\r\n        uint256 obj\r\n    );\r\n    \r\n    function credential_tracing_log(uint256 obj) internal {\r\n         emit trace_log(\"credential_tracing_log\", msg.sender, now, CredentialTraceTimes[msg.sender], obj);\r\n    }\r\n    \r\n    function identity_tracing_log(uint256 obj) internal {\r\n         emit trace_log(\"credential_tracing_log\", msg.sender, now, IdentityTraceTimes[msg.sender], obj);\r\n    }\r\n\t\r\n\tfunction register_parameter(uint256 _a, uint256 _b, uint256 _p, uint256 _n, uint256 _gx, uint256 _gy) public{ \r\n\t\ta = _a;\r\n\t\tb = _b;\r\n\t\tp = _p;\r\n\t\tn = _n;\r\n\t\tgx = _gx;\r\n\t\tgy = _gy;\r\n        xt = rand_less_than(_n);\r\n    }\r\n    \r\n    function get_private_key() public view returns(uint256){  \r\n\t\treturn xt;\r\n\t}\r\n\t\r\n\tfunction get_execution_time() public view returns(uint256,uint256){  \r\n\t\treturn (credential_execution_time,identity_execution_time);\r\n\t}\r\n    \r\n    function calculate_public_key() public{  \r\n        (yt_x, yt_y) = multiplyScalar(gx, gy, xt);\r\n\t}\r\n\t\r\n\tfunction get_public_key() public view returns(uint256 , uint256 ){  \r\n\t\treturn (yt_x, yt_y);\r\n\t}\r\n\t\r\n\tfunction credential_tracing() public returns(uint256,uint256){\r\n\t        CredentialTraceTimes[msg.sender] += 1;\r\n\t    return (c_x,c_y);\r\n\t}\r\n\t\r\n\tfunction identity_tracing() public returns(uint256,uint256){\r\n\t        CredentialTraceTimes[msg.sender] += 1;\r\n\t     return (i_x,i_y);\r\n\t}\r\n\r\n\t// trace the credential\r\n    function credential_calculating(uint256 xiupsilon_x, uint256 xiupsilon_y) public{\r\n\t    if (CredentialTraceTimes[msg.sender] == 0){\r\n            (c_x,c_y) = multiplyScalar(xiupsilon_x, xiupsilon_y, xt);\t\r\n        }\r\n        credential_tracing_log(xiupsilon_x);\r\n    }\r\n\t\r\n\t\r\n\t// --------------------------  test code [begin] --------------------------\r\n\t\r\n\t\r\n    function network_testing() public{\r\n    }\r\n\t\r\n    function identity_tracing_testing(uint256 zeta1_x, uint256 zeta1_y) public{\r\n\t\tuint256 nxt = inverseMod(xt, n);\r\n\t\t(i_x,i_y) = multiplyScalar(zeta1_x, zeta1_y, nxt);\t\r\n    }\r\n\t\r\n\t// testing credential tracing\r\n    function credential_tracing_testing(uint256 xiupsilon_x, uint256 xiupsilon_y) public{\r\n\t    (c_x,c_y) = multiplyScalar(xiupsilon_x, xiupsilon_y, xt);\t\r\n    }\r\n\t\r\n\t// -------------------------- test code [end]  --------------------------\r\n    \r\n    // trace the identity\r\n    function identity_calculating(uint256 zeta1_x, uint256 zeta1_y) public{\r\n        if (IdentityTraceTimes[msg.sender] == 0){\r\n\t\t    \r\n            uint256 nxt = inverseMod(xt, n);\r\n            (i_x,i_y) = multiplyScalar(zeta1_x, zeta1_y, nxt);\t\r\n\t\r\n        }\r\n        identity_tracing_log(zeta1_x);\r\n    }\r\n\t\r\n\t\r\n    \r\n    function rand_less_than(uint256 upper_bound) private returns(uint256){\r\n        uint256 r = PRNG() % upper_bound;\r\n\t\treturn r;\r\n    }\r\n    \r\n    function PRNG() private view returns(uint256) {\r\n        return uint256(uint256(keccak256(abi.encodePacked(block.timestamp, block.difficulty,msg.sender,now)))) ;\r\n    }\r\n\r\n    /**\r\n     * @dev Inverse of u in the field of modulo m.\r\n     */\r\n    function inverseMod(uint u, uint m) internal pure\r\n        returns (uint)\r\n    {\r\n        if (u == 0 || u == m || m == 0)\r\n            return 0;\r\n        if (u > m)\r\n            u = u % m;\r\n\r\n        int t1;\r\n        int t2 = 1;\r\n        uint r1 = m;\r\n        uint r2 = u;\r\n        uint q;\r\n\r\n        while (r2 != 0) {\r\n            q = r1 / r2;\r\n            (t1, t2, r1, r2) = (t2, t1 - int(q) * t2, r2, r1 - q * r2);\r\n        }\r\n\r\n        if (t1 < 0)\r\n            return (m - uint(-t1));\r\n\r\n        return uint(t1);\r\n    }\r\n\r\n    /**\r\n     * @dev Transform affine coordinates into projective coordinates.\r\n     */\r\n    function toProjectivePoint(uint x0, uint y0) public view\r\n        returns (uint[3] memory P)\r\n    {\r\n        P[2] = addmod(0, 1, p);\r\n        P[0] = mulmod(x0, P[2], p);\r\n        P[1] = mulmod(y0, P[2], p);\r\n    }\r\n\r\n    /**\r\n     * @dev Add two points in affine coordinates and return projective point.\r\n     */\r\n    function addAndReturnProjectivePoint(uint x1, uint y1, uint x2, uint y2) public view\r\n        returns (uint[3] memory P)\r\n    {\r\n        uint x;\r\n        uint y;\r\n        (x, y) = add(x1, y1, x2, y2);\r\n        P = toProjectivePoint(x, y);\r\n    }\r\n\r\n    /**\r\n     * @dev Transform from projective to affine coordinates.\r\n     */\r\n    function toAffinePoint(uint x0, uint y0, uint z0) public view\r\n        returns (uint x1, uint y1)\r\n    {\r\n        uint z0Inv;\r\n        z0Inv = inverseMod(z0, p);\r\n        x1 = mulmod(x0, z0Inv, p);\r\n        y1 = mulmod(y0, z0Inv, p);\r\n    }\r\n\r\n    /**\r\n     * @dev Return the zero curve in projective coordinates.\r\n     */\r\n    function zeroProj() public view\r\n        returns (uint x, uint y, uint z)\r\n    {\r\n        return (0, 1, 0);\r\n    }\r\n\r\n    /**\r\n     * @dev Return the zero curve in affine coordinates.\r\n     */\r\n    function zeroAffine() public pure\r\n        returns (uint x, uint y)\r\n    {\r\n        return (0, 0);\r\n    }\r\n\r\n    /**\r\n     * @dev Check if the curve is the zero curve.\r\n     */\r\n    function isZeroCurve(uint x0, uint y0) public view\r\n        returns (bool isZero)\r\n    {\r\n        if(x0 == 0 && y0 == 0) {\r\n            return true;\r\n        }\r\n        return false;\r\n    }\r\n\r\n    /**\r\n     * @dev Check if a point in affine coordinates is on the curve.\r\n     */\r\n    function isOnCurve(uint x, uint y) public view\r\n        returns (bool)\r\n    {\r\n        if (0 == x || x == p || 0 == y || y == p) {\r\n            return false;\r\n        }\r\n\r\n        uint LHS = mulmod(y, y, p); // y^2\r\n        uint RHS = mulmod(mulmod(x, x, p), x, p); // x^3\r\n\r\n        if (a != 0) {\r\n            RHS = addmod(RHS, mulmod(x, a, p), p); // x^3 + a*x\r\n        }\r\n        if (b != 0) {\r\n            RHS = addmod(RHS, b, p); // x^3 + a*x + b\r\n        }\r\n\r\n        return LHS == RHS;\r\n    }\r\n\r\n    /**\r\n     * @dev Double an elliptic curve point in projective coordinates. See\r\n     * https://www.nayuki.io/page/elliptic-curve-point-addition-in-projective-coordinates\r\n     */\r\n    function twiceProj(uint x0, uint y0, uint z0) public view\r\n        returns (uint x1, uint y1, uint z1)\r\n    {\r\n        uint t;\r\n        uint u;\r\n        uint v;\r\n        uint w;\r\n\r\n        if(isZeroCurve(x0, y0)) {\r\n            return zeroProj();\r\n        }\r\n\r\n        u = mulmod(y0, z0, p);\r\n        u = mulmod(u, 2, p);\r\n\r\n        v = mulmod(u, x0, p);\r\n        v = mulmod(v, y0, p);\r\n        v = mulmod(v, 2, p);\r\n\r\n        x0 = mulmod(x0, x0, p);\r\n        t = mulmod(x0, 3, p);\r\n\r\n        z0 = mulmod(z0, z0, p);\r\n        z0 = mulmod(z0, a, p);\r\n        t = addmod(t, z0, p);\r\n\r\n        w = mulmod(t, t, p);\r\n        x0 = mulmod(2, v, p);\r\n        w = addmod(w, p-x0, p);\r\n\r\n        x0 = addmod(v, p-w, p);\r\n        x0 = mulmod(t, x0, p);\r\n        y0 = mulmod(y0, u, p);\r\n        y0 = mulmod(y0, y0, p);\r\n        y0 = mulmod(2, y0, p);\r\n        y1 = addmod(x0, p-y0, p);\r\n\r\n        x1 = mulmod(u, w, p);\r\n\r\n        z1 = mulmod(u, u, p);\r\n        z1 = mulmod(z1, u, p);\r\n    }\r\n\r\n    /**\r\n     * @dev Add two elliptic curve points in projective coordinates. See\r\n     * https://www.nayuki.io/page/elliptic-curve-point-addition-in-projective-coordinates\r\n     */\r\n    function addProj(uint x0, uint y0, uint z0, uint x1, uint y1, uint z1) public view\r\n        returns (uint x2, uint y2, uint z2)\r\n    {\r\n        uint t0;\r\n        uint t1;\r\n        uint u0;\r\n        uint u1;\r\n\r\n        if (isZeroCurve(x0, y0)) {\r\n            return (x1, y1, z1);\r\n        }\r\n        else if (isZeroCurve(x1, y1)) {\r\n            return (x0, y0, z0);\r\n        }\r\n\r\n        t0 = mulmod(y0, z1, p);\r\n        t1 = mulmod(y1, z0, p);\r\n\r\n        u0 = mulmod(x0, z1, p);\r\n        u1 = mulmod(x1, z0, p);\r\n\r\n        if (u0 == u1) {\r\n            if (t0 == t1) {\r\n                return twiceProj(x0, y0, z0);\r\n            }\r\n            else {\r\n                return zeroProj();\r\n            }\r\n        }\r\n\r\n        (x2, y2, z2) = addProj2(mulmod(z0, z1, p), u0, u1, t1, t0);\r\n    }\r\n\r\n    /**\r\n     * @dev Helper function that splits addProj to avoid too many local variables.\r\n     */\r\n    function addProj2(uint v, uint u0, uint u1, uint t1, uint t0) private view\r\n        returns (uint x2, uint y2, uint z2)\r\n    {\r\n        uint u;\r\n        uint u2;\r\n        uint u3;\r\n        uint w;\r\n        uint t;\r\n\r\n        t = addmod(t0, p-t1, p);\r\n        u = addmod(u0, p-u1, p);\r\n        u2 = mulmod(u, u, p);\r\n\r\n        w = mulmod(t, t, p);\r\n        w = mulmod(w, v, p);\r\n        u1 = addmod(u1, u0, p);\r\n        u1 = mulmod(u1, u2, p);\r\n        w = addmod(w, p-u1, p);\r\n\r\n        x2 = mulmod(u, w, p);\r\n\r\n        u3 = mulmod(u2, u, p);\r\n        u0 = mulmod(u0, u2, p);\r\n        u0 = addmod(u0, p-w, p);\r\n        t = mulmod(t, u0, p);\r\n        t0 = mulmod(t0, u3, p);\r\n\r\n        y2 = addmod(t, p-t0, p);\r\n\r\n        z2 = mulmod(u3, v, p);\r\n    }\r\n\r\n    /**\r\n     * @dev Add two elliptic curve points in affine coordinates.\r\n     */\r\n    function add(uint x0, uint y0, uint x1, uint y1) public view\r\n        returns (uint, uint)\r\n    {\r\n        uint z0;\r\n\r\n        (x0, y0, z0) = addProj(x0, y0, 1, x1, y1, 1);\r\n\r\n        return toAffinePoint(x0, y0, z0);\r\n    }\r\n\r\n    /**\r\n     * @dev Double an elliptic curve point in affine coordinates.\r\n     */\r\n    function twice(uint x0, uint y0) public view\r\n        returns (uint, uint)\r\n    {\r\n        uint z0;\r\n\r\n        (x0, y0, z0) = twiceProj(x0, y0, 1);\r\n\r\n        return toAffinePoint(x0, y0, z0);\r\n    }\r\n\r\n    /**\r\n     * @dev Multiply an elliptic curve point by a 2 power base (i.e., (2^exp)*P)).\r\n     */\r\n    function multiplyPowerBase2(uint x0, uint y0, uint exp) public view\r\n        returns (uint, uint)\r\n    {\r\n        uint base2X = x0;\r\n        uint base2Y = y0;\r\n        uint base2Z = 1;\r\n\r\n        for(uint i = 0; i < exp; i++) {\r\n            (base2X, base2Y, base2Z) = twiceProj(base2X, base2Y, base2Z);\r\n        }\r\n\r\n        return toAffinePoint(base2X, base2Y, base2Z);\r\n    }\r\n\r\n    /**\r\n     * @dev Multiply an elliptic curve point by a scalar.\r\n     */\r\n    function multiplyScalar(uint x0, uint y0, uint scalar) public view\r\n        returns (uint x1, uint y1)\r\n    {\r\n        if(scalar == 0) {\r\n            return zeroAffine();\r\n        }\r\n        else if (scalar == 1) {\r\n            return (x0, y0);\r\n        }\r\n        else if (scalar == 2) {\r\n            return twice(x0, y0);\r\n        }\r\n\r\n        uint base2X = x0;\r\n        uint base2Y = y0;\r\n        uint base2Z = 1;\r\n        uint z1 = 1;\r\n        x1 = x0;\r\n        y1 = y0;\r\n\r\n        if(scalar%2 == 0) {\r\n            x1 = y1 = 0;\r\n        }\r\n\r\n        scalar = scalar >> 1;\r\n\r\n        while(scalar > 0) {\r\n            (base2X, base2Y, base2Z) = twiceProj(base2X, base2Y, base2Z);\r\n\r\n            if(scalar%2 == 1) {\r\n                (x1, y1, z1) = addProj(base2X, base2Y, base2Z, x1, y1, z1);\r\n            }\r\n\r\n            scalar = scalar >> 1;\r\n        }\r\n\r\n        return toAffinePoint(x1, y1, z1);\r\n    }\r\n\r\n    /**\r\n     * @dev Multiply the curve's generator point by a scalar.\r\n     */\r\n    function multipleGeneratorByScalar(uint scalar) public view\r\n        returns (uint, uint)\r\n    {\r\n        return multiplyScalar(gx, gy, scalar);\r\n    }\r\n}",
  "abi": [
    {
      "constant": true,
      "inputs": [],
      "name": "gx",
      "outputs": [
        {
          "name": "",
          "type": "uint256"
        }
      ],
      "payable": false,
      "stateMutability": "view",
      "type": "function"
    },
    {
      "constant": true,
      "inputs": [],
      "name": "a",
      "outputs": [
        {
          "name": "",
          "type": "uint256"
        }
      ],
      "payable": false,
      "stateMutability": "view",
      "type": "function"
    },
    {
      "constant": true,
      "inputs": [],
      "name": "gy",
      "outputs": [
        {
          "name": "",
          "type": "uint256"
        }
      ],
      "payable": false,
      "stateMutability": "view",
      "type": "function"
    },
    {
      "constant": true,
      "inputs": [],
      "name": "n",
      "outputs": [
        {
          "name": "",
          "type": "uint256"
        }
      ],
      "payable": false,
      "stateMutability": "view",
      "type": "function"
    },
    {
      "constant": true,
      "inputs": [],
      "name": "yt_x",
      "outputs": [
        {
          "name": "",
          "type": "uint256"
        }
      ],
      "payable": false,
      "stateMutability": "view",
      "type": "function"
    },
    {
      "constant": true,
      "inputs": [],
      "name": "tracerCreator",
      "outputs": [
        {
          "name": "",
          "type": "address"
        }
      ],
      "payable": false,
      "stateMutability": "view",
      "type": "function"
    },
    {
      "constant": true,
      "inputs": [],
      "name": "b",
      "outputs": [
        {
          "name": "",
          "type": "uint256"
        }
      ],
      "payable": false,
      "stateMutability": "view",
      "type": "function"
    },
    {
      "constant": true,
      "inputs": [],
      "name": "seed",
      "outputs": [
        {
          "name": "",
          "type": "uint256"
        }
      ],
      "payable": false,
      "stateMutability": "view",
      "type": "function"
    },
    {
      "constant": true,
      "inputs": [],
      "name": "p",
      "outputs": [
        {
          "name": "",
          "type": "uint256"
        }
      ],
      "payable": false,
      "stateMutability": "view",
      "type": "function"
    },
    {
      "constant": true,
      "inputs": [],
      "name": "identity_execution_time",
      "outputs": [
        {
          "name": "",
          "type": "uint256"
        }
      ],
      "payable": false,
      "stateMutability": "view",
      "type": "function"
    },
    {
      "constant": true,
      "inputs": [],
      "name": "yt_y",
      "outputs": [
        {
          "name": "",
          "type": "uint256"
        }
      ],
      "payable": false,
      "stateMutability": "view",
      "type": "function"
    },
    {
      "constant": true,
      "inputs": [],
      "name": "credential_execution_time",
      "outputs": [
        {
          "name": "",
          "type": "uint256"
        }
      ],
      "payable": false,
      "stateMutability": "view",
      "type": "function"
    },
    {
      "inputs": [],
      "payable": false,
      "stateMutability": "nonpayable",
      "type": "constructor"
    },
    {
      "anonymous": false,
      "inputs": [
        {
          "indexed": false,
          "name": "information",
          "type": "string"
        },
        {
          "indexed": true,
          "name": "sender",
          "type": "address"
        },
        {
          "indexed": false,
          "name": "timestamp",
          "type": "uint256"
        },
        {
          "indexed": false,
          "name": "calltimes",
          "type": "uint256"
        },
        {
          "indexed": false,
          "name": "obj",
          "type": "uint256"
        }
      ],
      "name": "trace_log",
      "type": "event"
    },
    {
      "constant": false,
      "inputs": [
        {
          "name": "_a",
          "type": "uint256"
        },
        {
          "name": "_b",
          "type": "uint256"
        },
        {
          "name": "_p",
          "type": "uint256"
        },
        {
          "name": "_n",
          "type": "uint256"
        },
        {
          "name": "_gx",
          "type": "uint256"
        },
        {
          "name": "_gy",
          "type": "uint256"
        }
      ],
      "name": "register_parameter",
      "outputs": [],
      "payable": false,
      "stateMutability": "nonpayable",
      "type": "function"
    },
    {
      "constant": true,
      "inputs": [],
      "name": "get_private_key",
      "outputs": [
        {
          "name": "",
          "type": "uint256"
        }
      ],
      "payable": false,
      "stateMutability": "view",
      "type": "function"
    },
    {
      "constant": true,
      "inputs": [],
      "name": "get_execution_time",
      "outputs": [
        {
          "name": "",
          "type": "uint256"
        },
        {
          "name": "",
          "type": "uint256"
        }
      ],
      "payable": false,
      "stateMutability": "view",
      "type": "function"
    },
    {
      "constant": false,
      "inputs": [],
      "name": "calculate_public_key",
      "outputs": [],
      "payable": false,
      "stateMutability": "nonpayable",
      "type": "function"
    },
    {
      "constant": true,
      "inputs": [],
      "name": "get_public_key",
      "outputs": [
        {
          "name": "",
          "type": "uint256"
        },
        {
          "name": "",
          "type": "uint256"
        }
      ],
      "payable": false,
      "stateMutability": "view",
      "type": "function"
    },
    {
      "constant": false,
      "inputs": [],
      "name": "credential_tracing",
      "outputs": [
        {
          "name": "",
          "type": "uint256"
        },
        {
          "name": "",
          "type": "uint256"
        }
      ],
      "payable": false,
      "stateMutability": "nonpayable",
      "type": "function"
    },
    {
      "constant": false,
      "inputs": [],
      "name": "identity_tracing",
      "outputs": [
        {
          "name": "",
          "type": "uint256"
        },
        {
          "name": "",
          "type": "uint256"
        }
      ],
      "payable": false,
      "stateMutability": "nonpayable",
      "type": "function"
    },
    {
      "constant": false,
      "inputs": [
        {
          "name": "xiupsilon_x",
          "type": "uint256"
        },
        {
          "name": "xiupsilon_y",
          "type": "uint256"
        }
      ],
      "name": "credential_calculating",
      "outputs": [],
      "payable": false,
      "stateMutability": "nonpayable",
      "type": "function"
    },
    {
      "constant": false,
      "inputs": [],
      "name": "network_testing",
      "outputs": [],
      "payable": false,
      "stateMutability": "nonpayable",
      "type": "function"
    },
    {
      "constant": false,
      "inputs": [
        {
          "name": "zeta1_x",
          "type": "uint256"
        },
        {
          "name": "zeta1_y",
          "type": "uint256"
        }
      ],
      "name": "identity_tracing_testing",
      "outputs": [],
      "payable": false,
      "stateMutability": "nonpayable",
      "type": "function"
    },
    {
      "constant": false,
      "inputs": [
        {
          "name": "xiupsilon_x",
          "type": "uint256"
        },
        {
          "name": "xiupsilon_y",
          "type": "uint256"
        }
      ],
      "name": "credential_tracing_testing",
      "outputs": [],
      "payable": false,
      "stateMutability": "nonpayable",
      "type": "function"
    },
    {
      "constant": false,
      "inputs": [
        {
          "name": "zeta1_x",
          "type": "uint256"
        },
        {
          "name": "zeta1_y",
          "type": "uint256"
        }
      ],
      "name": "identity_calculating",
      "outputs": [],
      "payable": false,
      "stateMutability": "nonpayable",
      "type": "function"
    },
    {
      "constant": true,
      "inputs": [
        {
          "name": "x0",
          "type": "uint256"
        },
        {
          "name": "y0",
          "type": "uint256"
        }
      ],
      "name": "toProjectivePoint",
      "outputs": [
        {
          "name": "P",
          "type": "uint256[3]"
        }
      ],
      "payable": false,
      "stateMutability": "view",
      "type": "function"
    },
    {
      "constant": true,
      "inputs": [
        {
          "name": "x1",
          "type": "uint256"
        },
        {
          "name": "y1",
          "type": "uint256"
        },
        {
          "name": "x2",
          "type": "uint256"
        },
        {
          "name": "y2",
          "type": "uint256"
        }
      ],
      "name": "addAndReturnProjectivePoint",
      "outputs": [
        {
          "name": "P",
          "type": "uint256[3]"
        }
      ],
      "payable": false,
      "stateMutability": "view",
      "type": "function"
    },
    {
      "constant": true,
      "inputs": [
        {
          "name": "x0",
          "type": "uint256"
        },
        {
          "name": "y0",
          "type": "uint256"
        },
        {
          "name": "z0",
          "type": "uint256"
        }
      ],
      "name": "toAffinePoint",
      "outputs": [
        {
          "name": "x1",
          "type": "uint256"
        },
        {
          "name": "y1",
          "type": "uint256"
        }
      ],
      "payable": false,
      "stateMutability": "view",
      "type": "function"
    },
    {
      "constant": true,
      "inputs": [],
      "name": "zeroProj",
      "outputs": [
        {
          "name": "x",
          "type": "uint256"
        },
        {
          "name": "y",
          "type": "uint256"
        },
        {
          "name": "z",
          "type": "uint256"
        }
      ],
      "payable": false,
      "stateMutability": "view",
      "type": "function"
    },
    {
      "constant": true,
      "inputs": [],
      "name": "zeroAffine",
      "outputs": [
        {
          "name": "x",
          "type": "uint256"
        },
        {
          "name": "y",
          "type": "uint256"
        }
      ],
      "payable": false,
      "stateMutability": "pure",
      "type": "function"
    },
    {
      "constant": true,
      "inputs": [
        {
          "name": "x0",
          "type": "uint256"
        },
        {
          "name": "y0",
          "type": "uint256"
        }
      ],
      "name": "isZeroCurve",
      "outputs": [
        {
          "name": "isZero",
          "type": "bool"
        }
      ],
      "payable": false,
      "stateMutability": "view",
      "type": "function"
    },
    {
      "constant": true,
      "inputs": [
        {
          "name": "x",
          "type": "uint256"
        },
        {
          "name": "y",
          "type": "uint256"
        }
      ],
      "name": "isOnCurve",
      "outputs": [
        {
          "name": "",
          "type": "bool"
        }
      ],
      "payable": false,
      "stateMutability": "view",
      "type": "function"
    },
    {
      "constant": true,
      "inputs": [
        {
          "name": "x0",
          "type": "uint256"
        },
        {
          "name": "y0",
          "type": "uint256"
        },
        {
          "name": "z0",
          "type": "uint256"
        }
      ],
      "name": "twiceProj",
      "outputs": [
        {
          "name": "x1",
          "type": "uint256"
        },
        {
          "name": "y1",
          "type": "uint256"
        },
        {
          "name": "z1",
          "type": "uint256"
        }
      ],
      "payable": false,
      "stateMutability": "view",
      "type": "function"
    },
    {
      "constant": true,
      "inputs": [
        {
          "name": "x0",
          "type": "uint256"
        },
        {
          "name": "y0",
          "type": "uint256"
        },
        {
          "name": "z0",
          "type": "uint256"
        },
        {
          "name": "x1",
          "type": "uint256"
        },
        {
          "name": "y1",
          "type": "uint256"
        },
        {
          "name": "z1",
          "type": "uint256"
        }
      ],
      "name": "addProj",
      "outputs": [
        {
          "name": "x2",
          "type": "uint256"
        },
        {
          "name": "y2",
          "type": "uint256"
        },
        {
          "name": "z2",
          "type": "uint256"
        }
      ],
      "payable": false,
      "stateMutability": "view",
      "type": "function"
    },
    {
      "constant": true,
      "inputs": [
        {
          "name": "x0",
          "type": "uint256"
        },
        {
          "name": "y0",
          "type": "uint256"
        },
        {
          "name": "x1",
          "type": "uint256"
        },
        {
          "name": "y1",
          "type": "uint256"
        }
      ],
      "name": "add",
      "outputs": [
        {
          "name": "",
          "type": "uint256"
        },
        {
          "name": "",
          "type": "uint256"
        }
      ],
      "payable": false,
      "stateMutability": "view",
      "type": "function"
    },
    {
      "constant": true,
      "inputs": [
        {
          "name": "x0",
          "type": "uint256"
        },
        {
          "name": "y0",
          "type": "uint256"
        }
      ],
      "name": "twice",
      "outputs": [
        {
          "name": "",
          "type": "uint256"
        },
        {
          "name": "",
          "type": "uint256"
        }
      ],
      "payable": false,
      "stateMutability": "view",
      "type": "function"
    },
    {
      "constant": true,
      "inputs": [
        {
          "name": "x0",
          "type": "uint256"
        },
        {
          "name": "y0",
          "type": "uint256"
        },
        {
          "name": "exp",
          "type": "uint256"
        }
      ],
      "name": "multiplyPowerBase2",
      "outputs": [
        {
          "name": "",
          "type": "uint256"
        },
        {
          "name": "",
          "type": "uint256"
        }
      ],
      "payable": false,
      "stateMutability": "view",
      "type": "function"
    },
    {
      "constant": true,
      "inputs": [
        {
          "name": "x0",
          "type": "uint256"
        },
        {
          "name": "y0",
          "type": "uint256"
        },
        {
          "name": "scalar",
          "type": "uint256"
        }
      ],
      "name": "multiplyScalar",
      "outputs": [
        {
          "name": "x1",
          "type": "uint256"
        },
        {
          "name": "y1",
          "type": "uint256"
        }
      ],
      "payable": false,
      "stateMutability": "view",
      "type": "function"
    },
    {
      "constant": true,
      "inputs": [
        {
          "name": "scalar",
          "type": "uint256"
        }
      ],
      "name": "multipleGeneratorByScalar",
      "outputs": [
        {
          "name": "",
          "type": "uint256"
        },
        {
          "name": "",
          "type": "uint256"
        }
      ],
      "payable": false,
      "stateMutability": "view",
      "type": "function"
    }
  ],
  "bytecode": "0x60806040526000600d5534801561001557600080fd5b5033600860006101000a81548173ffffffffffffffffffffffffffffffffffffffff021916908373ffffffffffffffffffffffffffffffffffffffff160217905550611a5d806100666000396000f3006080604052600436106101d8576000357c0100000000000000000000000000000000000000000000000000000000900463ffffffff16806301db5a51146101dd57806306c91ce31461020f57806309d3ef311461023a5780630afb4ddc1461028c5780630b0dbcfa146102d45780630dbe671f1461032357806314c670601461034e57806325486ddf1461038757806326c3428f146103be5780632d58c9a2146103f55780632e52d60614610420578063322b24aa1461044b578063338d0dd6146104a757806336996a95146104de5780634b06d3cb146105095780634df7e3d0146105605780634e12bb5c1461058b5780635ee27ac2146105b6578063600f0051146105e8578063675ca043146105ff578063713eca281461065b57806372fb4a14146106e25780637436f8221461073e5780637d94792a146107555780637ec8da8d1461078057806384dfba46146107f3578063919f7a25146108255780639ae8886a146108575780639c8316cf146108825780639e572b16146108b9578063c30cfa2d14610918578063c403124314610967578063c80edca414610992578063d8bfff3a146109f5578063e022d77c14610a20578063f214aba014610a86578063f7849f0c14610b07578063fdab498914610b32575b600080fd5b3480156101e957600080fd5b506101f2610b64565b604051808381526020018281526020019250505060405180910390f35b34801561021b57600080fd5b50610224610b75565b6040518082815260200191505060405180910390f35b34801561024657600080fd5b5061026f6004803603810190808035906020019092919080359060200190929190505050610b7b565b604051808381526020018281526020019250505060405180910390f35b34801561029857600080fd5b506102b760048036038101908080359060200190929190505050610baf565b604051808381526020018281526020019250505060405180910390f35b3480156102e057600080fd5b506103096004803603810190808035906020019092919080359060200190929190505050610bca565b604051808215151515815260200191505060405180910390f35b34801561032f57600080fd5b50610338610c90565b6040518082815260200191505060405180910390f35b34801561035a57600080fd5b50610363610c96565b60405180848152602001838152602001828152602001935050505060405180910390f35b34801561039357600080fd5b506103bc6004803603810190808035906020019092919080359060200190929190505050610cb4565b005b3480156103ca57600080fd5b506103f36004803603810190808035906020019092919080359060200190929190505050610cea565b005b34801561040157600080fd5b5061040a610d0f565b6040518082815260200191505060405180910390f35b34801561042c57600080fd5b50610435610d15565b6040518082815260200191505060405180910390f35b34801561045757600080fd5b5061048a600480360381019080803590602001909291908035906020019092919080359060200190929190505050610d1b565b604051808381526020018281526020019250505060405180910390f35b3480156104b357600080fd5b506104dc6004803603810190808035906020019092919080359060200190929190505050610d7a565b005b3480156104ea57600080fd5b506104f3610e01565b6040518082815260200191505060405180910390f35b34801561051557600080fd5b5061051e610e07565b604051808273ffffffffffffffffffffffffffffffffffffffff1673ffffffffffffffffffffffffffffffffffffffff16815260200191505060405180910390f35b34801561056c57600080fd5b50610575610e2d565b6040518082815260200191505060405180910390f35b34801561059757600080fd5b506105a0610e33565b6040518082815260200191505060405180910390f35b3480156105c257600080fd5b506105cb610e3d565b604051808381526020018281526020019250505060405180910390f35b3480156105f457600080fd5b506105fd610e4e565b005b34801561060b57600080fd5b5061063e600480360381019080803590602001909291908035906020019092919080359060200190929190505050610e75565b604051808381526020018281526020019250505060405180910390f35b34801561066757600080fd5b506106a460048036038101908080359060200190929190803590602001909291908035906020019092919080359060200190929190505050610eb3565b6040518082600360200280838360005b838110156106cf5780820151818401526020810190506106b4565b5050505090500191505060405180910390f35b3480156106ee57600080fd5b50610721600480360381019080803590602001909291908035906020019092919080359060200190929190505050610ee8565b604051808381526020018281526020019250505060405180910390f35b34801561074a57600080fd5b50610753610ff4565b005b34801561076157600080fd5b5061076a610ff6565b6040518082815260200191505060405180910390f35b34801561078c57600080fd5b506107b56004803603810190808035906020019092919080359060200190929190505050610ffc565b6040518082600360200280838360005b838110156107e05780820151818401526020810190506107c5565b5050505090500191505060405180910390f35b3480156107ff57600080fd5b506108086110a7565b604051808381526020018281526020019250505060405180910390f35b34801561083157600080fd5b5061083a6110bb565b604051808381526020018281526020019250505060405180910390f35b34801561086357600080fd5b5061086c61111a565b6040518082815260200191505060405180910390f35b34801561088e57600080fd5b506108b76004803603810190808035906020019092919080359060200190929190505050611120565b005b3480156108c557600080fd5b50610916600480360381019080803590602001909291908035906020019092919080359060200190929190803590602001909291908035906020019092919080359060200190929190505050611197565b005b34801561092457600080fd5b5061094d60048036038101908080359060200190929190803590602001909291905050506111d8565b604051808215151515815260200191505060405180910390f35b34801561097357600080fd5b5061097c611202565b6040518082815260200191505060405180910390f35b34801561099e57600080fd5b506109d1600480360381019080803590602001909291908035906020019092919080359060200190929190505050611208565b60405180848152602001838152602001828152602001935050505060405180910390f35b348015610a0157600080fd5b50610a0a6113cc565b6040518082815260200191505060405180910390f35b348015610a2c57600080fd5b50610a69600480360381019080803590602001909291908035906020019092919080359060200190929190803590602001909291905050506113d2565b604051808381526020018281526020019250505060405180910390f35b348015610a9257600080fd5b50610ae360048036038101908080359060200190929190803590602001909291908035906020019092919080359060200190929190803590602001909291908035906020019092919050505061140c565b60405180848152602001838152602001828152602001935050505060405180910390f35b348015610b1357600080fd5b50610b1c611506565b6040518082815260200191505060405180910390f35b348015610b3e57600080fd5b50610b4761150c565b604051808381526020018281526020019250505060405180910390f35b600080600654600754915091509091565b60005481565b6000806000610b8c85856001611208565b809350819650829750505050610ba3858583610e75565b92509250509250929050565b600080610bc160005460015485610ee8565b91509150915091565b60008060008460001480610bdf575060025485145b80610bea5750836000145b80610bf6575060025484145b15610c045760009250610c88565b600254801515610c1057fe5b8485099150600254801515610c2157fe5b85600254801515610c2e57fe5b8788090990506000600454141515610c6257600254801515610c4c57fe5b600254801515610c5857fe5b6004548709820890505b6000600554141515610c8257600254801515610c7a57fe5b600554820890505b80821492505b505092915050565b60045481565b60008060008060016000829250819150809050925092509250909192565b6000610cc4600e5460035461156b565b9050610cd1838383610ee8565b6013600060146000849190505583919050555050505050565b610cf78282600e54610ee8565b60116000601260008491905055839190505550505050565b60015481565b60035481565b60008060008060008088935087925060019150600090505b86811015610d5f57610d46848484611208565b8094508195508296505050508080600101915050610d33565b610d6a848484610e75565b9550955050505050935093915050565b600080600b60003373ffffffffffffffffffffffffffffffffffffffff1673ffffffffffffffffffffffffffffffffffffffff168152602001908152602001600020541415610df357610dd1600e5460035461156b565b9050610dde838383610ee8565b60136000601460008491905055839190505550505b610dfc8361161b565b505050565b600f5481565b600860009054906101000a900473ffffffffffffffffffffffffffffffffffffffff1681565b60055481565b6000600e54905090565b600080600f54601054915091509091565b610e5f600054600154600e54610ee8565b600f600060106000849190505583919050555050565b6000806000610e868460025461156b565b9050600254801515610e9457fe5b8187099250600254801515610ea557fe5b818609915050935093915050565b610ebb611a0e565b600080610eca878787876113d2565b8092508193505050610edc8282610ffc565b92505050949350505050565b6000806000806000806000871415610f0b57610f026110a7565b95509550610fe8565b6001871415610f1f57888895509550610fe8565b6002871415610f3b57610f328989610b7b565b95509550610fe8565b88935087925060019150600190508895508794506000600288811515610f5d57fe5b061415610f6c57600094508495505b6001879060020a900496505b6000871115610fd857610f8c848484611208565b8094508195508296505050506001600288811515610fa657fe5b061415610fc857610fbb84848489898661140c565b8093508197508298505050505b6001879060020a90049650610f78565b610fe3868683610e75565b955095505b50505050935093915050565b565b600d5481565b611004611a0e565b60025480151561101057fe5b600160000881600260038110151561102457fe5b60200201818152505060025480151561103957fe5b81600260038110151561104857fe5b6020020151840981600060038110151561105e57fe5b60200201818152505060025480151561107357fe5b81600260038110151561108257fe5b6020020151830981600160038110151561109857fe5b60200201818152505092915050565b600080600080819150809050915091509091565b6000806001600960003373ffffffffffffffffffffffffffffffffffffffff1673ffffffffffffffffffffffffffffffffffffffff16815260200190815260200160002060008282540192505081905550601354601454915091509091565b60025481565b6000600960003373ffffffffffffffffffffffffffffffffffffffff1673ffffffffffffffffffffffffffffffffffffffff16815260200190815260200160002054141561118a576111758282600e54610ee8565b60116000601260008491905055839190505550505b611193826116f4565b5050565b8560048190555084600581905550836002819055508260038190555081600081905550806001819055506111ca836117cd565b600e81905550505050505050565b600080831480156111e95750600082145b156111f757600190506111fc565b600090505b92915050565b60075481565b600080600080600080600061121d8a8a6111d8565b156112355761122a610c96565b9650965096506113bf565b60025480151561124157fe5b888a09925060025480151561125257fe5b60028409925060025480151561126457fe5b8a8409915060025480151561127557fe5b898309915060025480151561128657fe5b60028309915060025480151561129857fe5b8a8b0999506002548015156112a957fe5b60038b0993506002548015156112bb57fe5b88890997506002548015156112cc57fe5b600454890997506002548015156112df57fe5b88850893506002548015156112f057fe5b848509905060025480151561130157fe5b82600209995060025480151561131357fe5b8a600254038208905060025480151561132857fe5b81600254038308995060025480151561133d57fe5b8a8509995060025480151561134e57fe5b838a09985060025480151561135f57fe5b898a09985060025480151561137057fe5b89600209985060025480151561138257fe5b89600254038b08955060025480151561139757fe5b81840996506002548015156113a857fe5b83840994506002548015156113b957fe5b83860994505b5050505093509350939050565b60105481565b60008060006113e7878760018888600161140c565b8093508198508299505050506113fe878783610e75565b925092505094509492505050565b60008060008060008060006114218d8d6111d8565b15611434578989899650965096506114f6565b61143e8a8a6111d8565b15611451578c8c8c9650965096506114f6565b60025480151561145d57fe5b888d09935060025480151561146e57fe5b8b8a09925060025480151561147f57fe5b888e09915060025480151561149057fe5b8b8b099050808214156114ce57828414156114bb576114b08d8d8d611208565b9650965096506114f6565b6114c3610c96565b9650965096506114f6565b6114e96002548015156114dd57fe5b898d09838386886117ee565b8097508198508299505050505b5050505096509650969350505050565b60065481565b6000806001600960003373ffffffffffffffffffffffffffffffffffffffff1673ffffffffffffffffffffffffffffffffffffffff16815260200190815260200160002060008282540192505081905550601154601254915091509091565b600080600080600080600088148061158257508688145b8061158d5750600087145b1561159b5760009550611610565b868811156115b25786888115156115ae57fe5b0697505b600193508692508791505b6000821415156115f65781838115156115d257fe5b049050838482028603838484028603809550819650829750839850505050506115bd565b600085121561160c578460000387039550611610565b8495505b505050505092915050565b3373ffffffffffffffffffffffffffffffffffffffff167fecaf2ce53237aac054ad6ae1d2bd5f41f791b589000795e92aeccc771d693c9442600b60003373ffffffffffffffffffffffffffffffffffffffff1673ffffffffffffffffffffffffffffffffffffffff16815260200190815260200160002054846040518080602001858152602001848152602001838152602001828103825260168152602001807f63726564656e7469616c5f74726163696e675f6c6f670000000000000000000081525060200194505050505060405180910390a250565b3373ffffffffffffffffffffffffffffffffffffffff167fecaf2ce53237aac054ad6ae1d2bd5f41f791b589000795e92aeccc771d693c9442600960003373ffffffffffffffffffffffffffffffffffffffff1673ffffffffffffffffffffffffffffffffffffffff16815260200190815260200160002054846040518080602001858152602001848152602001838152602001828103825260168152602001807f63726564656e7469616c5f74726163696e675f6c6f670000000000000000000081525060200194505050505060405180910390a250565b600080826117d961192e565b8115156117e257fe5b06905080915050919050565b60008060008060008060008060025480151561180657fe5b8a600254038a08905060025480151561181b57fe5b8b600254038d08945060025480151561183057fe5b858609935060025480151561184157fe5b818209915060025480151561185257fe5b8d8309915060025480151561186357fe5b8c8c089a5060025480151561187457fe5b848c099a5060025480151561188557fe5b8b600254038308915060025480151561189a57fe5b82860997506002548015156118ab57fe5b85850992506002548015156118bc57fe5b848d099b506002548015156118cd57fe5b82600254038d089b506002548015156118e257fe5b8c820990506002548015156118f357fe5b838a09985060025480151561190457fe5b89600254038208965060025480151561191957fe5b8d840995505050505050955095509592505050565b600042443342604051602001808581526020018481526020018373ffffffffffffffffffffffffffffffffffffffff1673ffffffffffffffffffffffffffffffffffffffff166c010000000000000000000000000281526014018281526020019450505050506040516020818303038152906040526040518082805190602001908083835b6020831015156119d857805182526020820191506020810190506020830392506119b3565b6001836020036101000a038019825116818451168082178552505050505050905001915050604051809103902060019004905090565b6060604051908101604052806003906020820280388339808201915050905050905600a165627a7a72305820cfca9d540cd551552d8b7fe31eba3f47af242983ce1a4e2a146ed09da7346c280029",
  "compiler": {
    "name": "solc",
    "version": "0.4.25+commit.59dbf8f1.Emscripten.clang"
  },
  "contractName": "AuditTracer"
}